{
  "contractName": "Affitto",
  "abi": [
    {
      "anonymous": false,
      "inputs": [
        {
          "indexed": false,
          "internalType": "string",
          "name": "func",
          "type": "string"
        },
        {
          "indexed": false,
          "internalType": "address",
          "name": "sender",
          "type": "address"
        },
        {
          "indexed": false,
          "internalType": "uint256",
          "name": "value",
          "type": "uint256"
        },
        {
          "indexed": false,
          "internalType": "bytes",
          "name": "data",
          "type": "bytes"
        }
      ],
      "name": "Log",
      "type": "event"
    },
    {
      "stateMutability": "payable",
      "type": "fallback",
      "payable": true
    },
    {
      "stateMutability": "payable",
      "type": "receive",
      "payable": true
    },
    {
      "inputs": [
        {
          "internalType": "bool",
          "name": "role_id",
          "type": "bool"
        }
      ],
      "name": "register_user",
      "outputs": [],
      "stateMutability": "nonpayable",
      "type": "function"
    },
    {
      "inputs": [
        {
          "internalType": "uint256[]",
          "name": "rooms",
          "type": "uint256[]"
        },
        {
          "internalType": "uint256[]",
          "name": "deposits",
          "type": "uint256[]"
        }
      ],
      "name": "register_rooms",
      "outputs": [],
      "stateMutability": "nonpayable",
      "type": "function"
    },
    {
      "inputs": [
        {
          "internalType": "address payable",
          "name": "renter",
          "type": "address"
        },
        {
          "internalType": "uint256",
          "name": "room_id",
          "type": "uint256"
        }
      ],
      "name": "inizialize",
      "outputs": [],
      "stateMutability": "nonpayable",
      "type": "function"
    },
    {
      "inputs": [
        {
          "internalType": "address payable",
          "name": "renter",
          "type": "address"
        }
      ],
      "name": "inizialize",
      "outputs": [],
      "stateMutability": "nonpayable",
      "type": "function"
    },
    {
      "inputs": [],
      "name": "student_pay_deposit",
      "outputs": [],
      "stateMutability": "payable",
      "type": "function",
      "payable": true
    },
    {
      "inputs": [
        {
          "internalType": "uint256",
          "name": "contract_id",
          "type": "uint256"
        }
      ],
      "name": "renter_pay_deposit",
      "outputs": [],
      "stateMutability": "payable",
      "type": "function",
      "payable": true
    },
    {
      "inputs": [
        {
          "internalType": "uint256",
          "name": "contract_id",
          "type": "uint256"
        }
      ],
      "name": "withdraw_from_contract",
      "outputs": [],
      "stateMutability": "nonpayable",
      "type": "function"
    },
    {
      "inputs": [
        {
          "internalType": "uint256",
          "name": "contract_id",
          "type": "uint256"
        }
      ],
      "name": "end_contract_successfully",
      "outputs": [
        {
          "internalType": "bool",
          "name": "",
          "type": "bool"
        }
      ],
      "stateMutability": "nonpayable",
      "type": "function"
    },
    {
      "inputs": [
        {
          "internalType": "address",
          "name": "add",
          "type": "address"
        }
      ],
      "name": "get_user_info",
      "outputs": [
        {
          "components": [
            {
              "internalType": "enum Affitto.Role",
              "name": "role",
              "type": "uint8"
            },
            {
              "internalType": "uint256[]",
              "name": "room_record",
              "type": "uint256[]"
            },
            {
              "internalType": "uint256",
              "name": "num_rooms",
              "type": "uint256"
            },
            {
              "internalType": "bool",
              "name": "already_init",
              "type": "bool"
            }
          ],
          "internalType": "struct Affitto.user",
          "name": "",
          "type": "tuple"
        }
      ],
      "stateMutability": "view",
      "type": "function",
      "constant": true
    },
    {
      "inputs": [
        {
          "internalType": "uint256",
          "name": "contract_id",
          "type": "uint256"
        }
      ],
      "name": "get_contract_info",
      "outputs": [
        {
          "components": [
            {
              "internalType": "uint256",
              "name": "contract_id",
              "type": "uint256"
            },
            {
              "internalType": "uint256",
              "name": "room_id",
              "type": "uint256"
            },
            {
              "internalType": "bool",
              "name": "student_paid",
              "type": "bool"
            },
            {
              "internalType": "bool",
              "name": "renter_paid",
              "type": "bool"
            },
            {
              "internalType": "uint256",
              "name": "amt_paid_student",
              "type": "uint256"
            },
            {
              "internalType": "uint256",
              "name": "amt_paid_renter",
              "type": "uint256"
            },
            {
              "internalType": "bool",
              "name": "concluded_student",
              "type": "bool"
            },
            {
              "internalType": "bool",
              "name": "concluded_renter",
              "type": "bool"
            },
            {
              "internalType": "address payable",
              "name": "student",
              "type": "address"
            },
            {
              "internalType": "address payable",
              "name": "renter",
              "type": "address"
            }
          ],
          "internalType": "struct Affitto.contract_instance",
          "name": "",
          "type": "tuple"
        }
      ],
      "stateMutability": "view",
      "type": "function",
      "constant": true
    },
    {
      "inputs": [
        {
          "internalType": "uint256",
          "name": "room_id",
          "type": "uint256"
        }
      ],
      "name": "get_room_info",
      "outputs": [
        {
          "components": [
            {
              "internalType": "uint256",
              "name": "id",
              "type": "uint256"
            },
            {
              "internalType": "address",
              "name": "owner",
              "type": "address"
            },
            {
              "internalType": "bool",
              "name": "occupied",
              "type": "bool"
            },
            {
              "internalType": "uint256",
              "name": "deposit",
              "type": "uint256"
            }
          ],
          "internalType": "struct Affitto.room",
          "name": "",
          "type": "tuple"
        }
      ],
      "stateMutability": "view",
      "type": "function",
      "constant": true
    },
    {
      "inputs": [
        {
          "internalType": "address",
          "name": "addr",
          "type": "address"
        },
        {
          "internalType": "uint256",
          "name": "contract_id",
          "type": "uint256"
        }
      ],
      "name": "check_if_already_paid",
      "outputs": [
        {
          "internalType": "bool",
          "name": "",
          "type": "bool"
        }
      ],
      "stateMutability": "view",
      "type": "function",
      "constant": true
    }
  ],
  "bytecode": "0x6080604052306000806101000a81548173ffffffffffffffffffffffffffffffffffffffff021916908373ffffffffffffffffffffffffffffffffffffffff1602179055506602150df0ba6eda600555600060065534801561006057600080fd5b50613bf4806100706000396000f3fe6080604052600436106100ab5760003560e01c806399aa59781161006457806399aa597814610264578063a1370f1b1461028d578063b2f01901146102ca578063d8f229ab146102d4578063da9ae234146102fd578063db3189b714610326576100eb565b80631db8d6cd1461012b57806322aece9c146101475780633acbba6e1461017057806365cdf7c3146101ad578063774deb42146101ea5780638c4db02514610227576100eb565b366100eb577ff7f75251dee7d7fc22deac3247729ebe7c86541f35930bf10c2a4207479a3b6c33346040516100e1929190612cd8565b60405180910390a1005b7ff7f75251dee7d7fc22deac3247729ebe7c86541f35930bf10c2a4207479a3b6c33346000366040516101219493929190612dc0565b60405180910390a1005b61014560048036038101906101409190612e53565b61034f565b005b34801561015357600080fd5b5061016e60048036038101906101699190612fc8565b610675565b005b34801561017c57600080fd5b506101976004803603810190610192919061306c565b610963565b6040516101a491906130c7565b60405180910390f35b3480156101b957600080fd5b506101d460048036038101906101cf9190612e53565b610c4b565b6040516101e191906130c7565b60405180910390f35b3480156101f657600080fd5b50610211600480360381019061020c9190612e53565b610f40565b60405161021e91906131ed565b60405180910390f35b34801561023357600080fd5b5061024e60048036038101906102499190613209565b6110ae565b60405161025b91906133bf565b60405180910390f35b34801561027057600080fd5b5061028b6004803603810190610286919061340d565b6111bf565b005b34801561029957600080fd5b506102b460048036038101906102af9190612e53565b61148d565b6040516102c1919061349e565b60405180910390f35b6102d261153f565b005b3480156102e057600080fd5b506102fb60048036038101906102f691906134e5565b61181f565b005b34801561030957600080fd5b50610324600480360381019061031f9190613525565b611ca2565b005b34801561033257600080fd5b5061034d60048036038101906103489190612e53565b6121da565b005b6000600160008381526020019081526020016000206040518061014001604052908160008201548152602001600182015481526020016002820160009054906101000a900460ff161515151581526020016002820160019054906101000a900460ff1615151515815260200160038201548152602001600482015481526020016005820160009054906101000a900460ff161515151581526020016005820160019054906101000a900460ff161515151581526020016005820160029054906101000a900473ffffffffffffffffffffffffffffffffffffffff1673ffffffffffffffffffffffffffffffffffffffff1673ffffffffffffffffffffffffffffffffffffffff1681526020016006820160009054906101000a900473ffffffffffffffffffffffffffffffffffffffff1673ffffffffffffffffffffffffffffffffffffffff1673ffffffffffffffffffffffffffffffffffffffff168152505090506000600260003373ffffffffffffffffffffffffffffffffffffffff1673ffffffffffffffffffffffffffffffffffffffff16815260200190815260200160002060000160009054906101000a900460ff1690506000600181111561051a57610519613236565b5b81600181111561052d5761052c613236565b5b1461056d576040517f08c379a00000000000000000000000000000000000000000000000000000000081526004016105649061359e565b60405180910390fd5b81610120015173ffffffffffffffffffffffffffffffffffffffff163373ffffffffffffffffffffffffffffffffffffffff16146105e0576040517f08c379a00000000000000000000000000000000000000000000000000000000081526004016105d79061359e565b60405180910390fd5b6000600460008460200151815260200190815260200160002060020154905060003490508160055461061291906135ed565b8114610653576040517f08c379a000000000000000000000000000000000000000000000000000000000815260040161064a9061367b565b60405180910390fd5b808460a001818152505060018460600190151590811515815250505050505050565b6000600181111561068957610688613236565b5b600260003373ffffffffffffffffffffffffffffffffffffffff1673ffffffffffffffffffffffffffffffffffffffff16815260200190815260200160002060000160009054906101000a900460ff1660018111156106eb576106ea613236565b5b1461072b576040517f08c379a000000000000000000000000000000000000000000000000000000000815260040161072290613733565b60405180910390fd5b805182511461076f576040517f08c379a0000000000000000000000000000000000000000000000000000000008152600401610766906137c5565b60405180910390fd5b60008251905080600260003373ffffffffffffffffffffffffffffffffffffffff1673ffffffffffffffffffffffffffffffffffffffff1681526020019081526020016000206002018190555060005b8181101561095d57600060405180608001604052808684815181106107e7576107e66137e5565b5b602002602001015181526020013373ffffffffffffffffffffffffffffffffffffffff16815260200160001515815260200185848151811061082c5761082b6137e5565b5b6020026020010151815250905084828151811061084c5761084b6137e5565b5b6020026020010151600360003373ffffffffffffffffffffffffffffffffffffffff1673ffffffffffffffffffffffffffffffffffffffff16815260200190815260200160002083815481106108a5576108a46137e5565b5b90600052602060002001819055508060046000836000015181526020019081526020016000206000820151816000015560208201518160010160006101000a81548173ffffffffffffffffffffffffffffffffffffffff021916908373ffffffffffffffffffffffffffffffffffffffff16021790555060408201518160010160146101000a81548160ff0219169083151502179055506060820151816002015590505050808061095590613814565b9150506107bf565b50505050565b600080600260008573ffffffffffffffffffffffffffffffffffffffff1673ffffffffffffffffffffffffffffffffffffffff16815260200190815260200160002060000160009054906101000a900460ff1690506000600160008581526020019081526020016000206040518061014001604052908160008201548152602001600182015481526020016002820160009054906101000a900460ff161515151581526020016002820160019054906101000a900460ff1615151515815260200160038201548152602001600482015481526020016005820160009054906101000a900460ff161515151581526020016005820160019054906101000a900460ff161515151581526020016005820160029054906101000a900473ffffffffffffffffffffffffffffffffffffffff1673ffffffffffffffffffffffffffffffffffffffff1673ffffffffffffffffffffffffffffffffffffffff1681526020016006820160009054906101000a900473ffffffffffffffffffffffffffffffffffffffff1673ffffffffffffffffffffffffffffffffffffffff1673ffffffffffffffffffffffffffffffffffffffff1681525050905060006001811115610b2f57610b2e613236565b5b826001811115610b4257610b41613236565b5b03610bc85780610120015173ffffffffffffffffffffffffffffffffffffffff168573ffffffffffffffffffffffffffffffffffffffff1614610bba576040517f08c379a0000000000000000000000000000000000000000000000000000000008152600401610bb19061359e565b60405180910390fd5b806060015192505050610c45565b80610100015173ffffffffffffffffffffffffffffffffffffffff168573ffffffffffffffffffffffffffffffffffffffff1614610c3b576040517f08c379a0000000000000000000000000000000000000000000000000000000008152600401610c329061359e565b60405180910390fd5b8060400151925050505b92915050565b600080600160008481526020019081526020016000206040518061014001604052908160008201548152602001600182015481526020016002820160009054906101000a900460ff161515151581526020016002820160019054906101000a900460ff1615151515815260200160038201548152602001600482015481526020016005820160009054906101000a900460ff161515151581526020016005820160019054906101000a900460ff161515151581526020016005820160029054906101000a900473ffffffffffffffffffffffffffffffffffffffff1673ffffffffffffffffffffffffffffffffffffffff1673ffffffffffffffffffffffffffffffffffffffff1681526020016006820160009054906101000a900473ffffffffffffffffffffffffffffffffffffffff1673ffffffffffffffffffffffffffffffffffffffff1673ffffffffffffffffffffffffffffffffffffffff16815250509050600080600180811115610dc557610dc4613236565b5b600260003373ffffffffffffffffffffffffffffffffffffffff1673ffffffffffffffffffffffffffffffffffffffff16815260200190815260200160002060000160009054906101000a900460ff166001811115610e2757610e26613236565b5b03610e4d5733915060018360c00190151590811515815250508261012001519050610e6a565b33905060018360e001901515908115158152505082610100015191505b8260e001518015610e7c57508260c001515b15610f3357610e9182828786602001516124ab565b8173ffffffffffffffffffffffffffffffffffffffff166108fc84608001519081150290604051600060405180830381858888f19350505050158015610edb573d6000803e3d6000fd5b508073ffffffffffffffffffffffffffffffffffffffff166108fc8460a001519081150290604051600060405180830381858888f19350505050158015610f26573d6000803e3d6000fd5b5060019350505050610f3b565b600093505050505b919050565b610f48612a7d565b600160008381526020019081526020016000206040518061014001604052908160008201548152602001600182015481526020016002820160009054906101000a900460ff161515151581526020016002820160019054906101000a900460ff1615151515815260200160038201548152602001600482015481526020016005820160009054906101000a900460ff161515151581526020016005820160019054906101000a900460ff161515151581526020016005820160029054906101000a900473ffffffffffffffffffffffffffffffffffffffff1673ffffffffffffffffffffffffffffffffffffffff1673ffffffffffffffffffffffffffffffffffffffff1681526020016006820160009054906101000a900473ffffffffffffffffffffffffffffffffffffffff1673ffffffffffffffffffffffffffffffffffffffff1673ffffffffffffffffffffffffffffffffffffffff16815250509050919050565b6110b6612b04565b600260008373ffffffffffffffffffffffffffffffffffffffff1673ffffffffffffffffffffffffffffffffffffffff1681526020019081526020016000206040518060800160405290816000820160009054906101000a900460ff16600181111561112557611124613236565b5b600181111561113757611136613236565b5b81526020016001820180548060200260200160405190810160405280929190818152602001828054801561118a57602002820191906000526020600020905b815481526020019060010190808311611176575b50505050508152602001600282015481526020016003820160009054906101000a900460ff1615151515815250509050919050565b600260003373ffffffffffffffffffffffffffffffffffffffff1673ffffffffffffffffffffffffffffffffffffffff16815260200190815260200160002060030160009054906101000a900460ff161561124f576040517f08c379a0000000000000000000000000000000000000000000000000000000008152600401611246906138a8565b60405180910390fd5b60008067ffffffffffffffff81111561126b5761126a612e85565b5b6040519080825280602002602001820160405280156112995781602001602082028036833780820191505090505b5090508115611398576040518060800160405280600060018111156112c1576112c0613236565b5b81526020018281526020016000815260200160011515815250600260003373ffffffffffffffffffffffffffffffffffffffff1673ffffffffffffffffffffffffffffffffffffffff16815260200190815260200160002060008201518160000160006101000a81548160ff0219169083600181111561134457611343613236565b5b02179055506020820151816001019080519060200190611365929190612b40565b506040820151816002015560608201518160030160006101000a81548160ff021916908315150217905550905050611489565b60405180608001604052806001808111156113b6576113b5613236565b5b81526020018281526020016000815260200160011515815250600260003373ffffffffffffffffffffffffffffffffffffffff1673ffffffffffffffffffffffffffffffffffffffff16815260200190815260200160002060008201518160000160006101000a81548160ff0219169083600181111561143957611438613236565b5b0217905550602082015181600101908051906020019061145a929190612b40565b506040820151816002015560608201518160030160006101000a81548160ff0219169083151502179055509050505b5050565b611495612b8d565b60046000838152602001908152602001600020604051806080016040529081600082015481526020016001820160009054906101000a900473ffffffffffffffffffffffffffffffffffffffff1673ffffffffffffffffffffffffffffffffffffffff1673ffffffffffffffffffffffffffffffffffffffff1681526020016001820160149054906101000a900460ff161515151581526020016002820154815250509050919050565b6000600260003373ffffffffffffffffffffffffffffffffffffffff1673ffffffffffffffffffffffffffffffffffffffff16815260200190815260200160002060000160009054906101000a900460ff1690506001808111156115a6576115a5613236565b5b8160018111156115b9576115b8613236565b5b146115c357600080fd5b6000600260003373ffffffffffffffffffffffffffffffffffffffff1673ffffffffffffffffffffffffffffffffffffffff16815260200190815260200160002060010160008154811061161a576116196137e5565b5b906000526020600020015490506000600160008381526020019081526020016000206040518061014001604052908160008201548152602001600182015481526020016002820160009054906101000a900460ff161515151581526020016002820160019054906101000a900460ff1615151515815260200160038201548152602001600482015481526020016005820160009054906101000a900460ff161515151581526020016005820160019054906101000a900460ff161515151581526020016005820160029054906101000a900473ffffffffffffffffffffffffffffffffffffffff1673ffffffffffffffffffffffffffffffffffffffff1673ffffffffffffffffffffffffffffffffffffffff1681526020016006820160009054906101000a900473ffffffffffffffffffffffffffffffffffffffff1673ffffffffffffffffffffffffffffffffffffffff1673ffffffffffffffffffffffffffffffffffffffff16815250509050600060046000836020015181526020019081526020016000206002015490506000349050816005546117bc91906135ed565b81146117fd576040517f08c379a00000000000000000000000000000000000000000000000000000000081526004016117f49061367b565b60405180910390fd5b8083608001818152505060018360400190151590811515815250505050505050565b6118283361293c565b611867576040517f08c379a000000000000000000000000000000000000000000000000000000000815260040161185e90613914565b60405180910390fd5b6118708261293c565b6118af576040517f08c379a00000000000000000000000000000000000000000000000000000000081526004016118a690613980565b60405180910390fd5b6000339050600015156118c28284612995565b151514611904576040517f08c379a00000000000000000000000000000000000000000000000000000000081526004016118fb90613a12565b60405180910390fd5b8273ffffffffffffffffffffffffffffffffffffffff166004600084815260200190815260200160002060010160009054906101000a900473ffffffffffffffffffffffffffffffffffffffff1673ffffffffffffffffffffffffffffffffffffffff16146119a8576040517f08c379a000000000000000000000000000000000000000000000000000000000815260040161199f90613aa4565b60405180910390fd5b60006006549050600660008154809291906119c290613814565b919050555060016004600085815260200190815260200160002060010160146101000a81548160ff021916908315150217905550600060405180610140016040528083815260200185815260200160001515815260200160001515815260200160008152602001600081526020016000151581526020016000151581526020018473ffffffffffffffffffffffffffffffffffffffff1681526020018673ffffffffffffffffffffffffffffffffffffffff1681525090508060016000848152602001908152602001600020600082015181600001556020820151816001015560408201518160020160006101000a81548160ff02191690831515021790555060608201518160020160016101000a81548160ff0219169083151502179055506080820151816003015560a0820151816004015560c08201518160050160006101000a81548160ff02191690831515021790555060e08201518160050160016101000a81548160ff0219169083151502179055506101008201518160050160026101000a81548173ffffffffffffffffffffffffffffffffffffffff021916908373ffffffffffffffffffffffffffffffffffffffff1602179055506101208201518160060160006101000a81548173ffffffffffffffffffffffffffffffffffffffff021916908373ffffffffffffffffffffffffffffffffffffffff160217905550905050600260008473ffffffffffffffffffffffffffffffffffffffff1673ffffffffffffffffffffffffffffffffffffffff168152602001908152602001600020600101829080600181540180825580915050600190039060005260206000200160009091909190915055600260008673ffffffffffffffffffffffffffffffffffffffff1673ffffffffffffffffffffffffffffffffffffffff1681526020019081526020016000206001018290806001815401808255809150506001900390600052602060002001600090919091909150555050505050565b611cab3361293c565b611cea576040517f08c379a0000000000000000000000000000000000000000000000000000000008152600401611ce190613914565b60405180910390fd5b611cf38161293c565b611d32576040517f08c379a0000000000000000000000000000000000000000000000000000000008152600401611d2990613980565b60405180910390fd5b60003390506000806000905060005b600260008673ffffffffffffffffffffffffffffffffffffffff1673ffffffffffffffffffffffffffffffffffffffff16815260200190815260200160002060020154811015611e9e5760046000600360008873ffffffffffffffffffffffffffffffffffffffff1673ffffffffffffffffffffffffffffffffffffffff1681526020019081526020016000208381548110611de057611ddf6137e5565b5b9060005260206000200154815260200190815260200160002060010160149054906101000a900460ff16611e8b576001915060046000600360008873ffffffffffffffffffffffffffffffffffffffff1673ffffffffffffffffffffffffffffffffffffffff1681526020019081526020016000208381548110611e6757611e666137e5565b5b90600052602060002001548152602001908152602001600020600001549250611e9e565b8080611e9690613814565b915050611d41565b5080611edf576040517f08c379a0000000000000000000000000000000000000000000000000000000008152600401611ed690613b36565b60405180910390fd5b6000600654905060066000815480929190611ef990613814565b919050555060016004600085815260200190815260200160002060010160146101000a81548160ff021916908315150217905550600060405180610140016040528083815260200185815260200160001515815260200160001515815260200160008152602001600081526020016000151581526020016000151581526020018673ffffffffffffffffffffffffffffffffffffffff1681526020018773ffffffffffffffffffffffffffffffffffffffff1681525090508060016000848152602001908152602001600020600082015181600001556020820151816001015560408201518160020160006101000a81548160ff02191690831515021790555060608201518160020160016101000a81548160ff0219169083151502179055506080820151816003015560a0820151816004015560c08201518160050160006101000a81548160ff02191690831515021790555060e08201518160050160016101000a81548160ff0219169083151502179055506101008201518160050160026101000a81548173ffffffffffffffffffffffffffffffffffffffff021916908373ffffffffffffffffffffffffffffffffffffffff1602179055506101208201518160060160006101000a81548173ffffffffffffffffffffffffffffffffffffffff021916908373ffffffffffffffffffffffffffffffffffffffff160217905550905050600260008673ffffffffffffffffffffffffffffffffffffffff1673ffffffffffffffffffffffffffffffffffffffff168152602001908152602001600020600101829080600181540180825580915050600190039060005260206000200160009091909190915055600260008773ffffffffffffffffffffffffffffffffffffffff1673ffffffffffffffffffffffffffffffffffffffff168152602001908152602001600020600101829080600181540180825580915050600190039060005260206000200160009091909190915055505050505050565b6000339050600080600160008581526020019081526020016000206040518061014001604052908160008201548152602001600182015481526020016002820160009054906101000a900460ff161515151581526020016002820160019054906101000a900460ff1615151515815260200160038201548152602001600482015481526020016005820160009054906101000a900460ff161515151581526020016005820160019054906101000a900460ff161515151581526020016005820160029054906101000a900473ffffffffffffffffffffffffffffffffffffffff1673ffffffffffffffffffffffffffffffffffffffff1673ffffffffffffffffffffffffffffffffffffffff1681526020016006820160009054906101000a900473ffffffffffffffffffffffffffffffffffffffff1673ffffffffffffffffffffffffffffffffffffffff1673ffffffffffffffffffffffffffffffffffffffff1681525050905060018081111561235657612355613236565b5b600260003373ffffffffffffffffffffffffffffffffffffffff1673ffffffffffffffffffffffffffffffffffffffff16815260200190815260200160002060000160009054906101000a900460ff1660018111156123b8576123b7613236565b5b036123fb576001600085815260200190815260200160002060060160009054906101000a900473ffffffffffffffffffffffffffffffffffffffff169150612435565b6001600085815260200190815260200160002060050160029054906101000a900473ffffffffffffffffffffffffffffffffffffffff1691505b60008160200151905061244a848487846124ab565b8273ffffffffffffffffffffffffffffffffffffffff166108fc8360a0015184608001516124789190613b56565b9081150290604051600060405180830381858888f193505050501580156124a3573d6000803e3d6000fd5b505050505050565b6001600083815260200190815260200160002060008082016000905560018201600090556002820160006101000a81549060ff02191690556002820160016101000a81549060ff0219169055600382016000905560048201600090556005820160006101000a81549060ff02191690556005820160016101000a81549060ff02191690556005820160026101000a81549073ffffffffffffffffffffffffffffffffffffffff02191690556006820160006101000a81549073ffffffffffffffffffffffffffffffffffffffff0219169055505060006004600083815260200190815260200160002060010160146101000a81548160ff0219169083151502179055506000600260008673ffffffffffffffffffffffffffffffffffffffff1673ffffffffffffffffffffffffffffffffffffffff16815260200190815260200160002060010180548060200260200160405190810160405280929190818152602001828054801561263c57602002820191906000526020600020905b815481526020019060010190808311612628575b505050505090506000600182516126539190613b8a565b67ffffffffffffffff81111561266c5761266b612e85565b5b60405190808252806020026020018201604052801561269a5781602001602082028036833780820191505090505b5090506000600260008773ffffffffffffffffffffffffffffffffffffffff1673ffffffffffffffffffffffffffffffffffffffff16815260200190815260200160002060010180548060200260200160405190810160405280929190818152602001828054801561272b57602002820191906000526020600020905b815481526020019060010190808311612717575b505050505090506000600182516127429190613b8a565b67ffffffffffffffff81111561275b5761275a612e85565b5b6040519080825280602002602001820160405280156127895781602001602082028036833780820191505090505b50905060005b845181101561280757868582815181106127ac576127ab6137e5565b5b6020026020010151146127f4578481815181106127cc576127cb6137e5565b5b60200260200101518482815181106127e7576127e66137e5565b5b6020026020010181815250505b80806127ff90613814565b91505061278f565b5082600260008a73ffffffffffffffffffffffffffffffffffffffff1673ffffffffffffffffffffffffffffffffffffffff168152602001908152602001600020600101908051906020019061285e929190612b40565b5060005b82518110156128da578683828151811061287f5761287e6137e5565b5b6020026020010151146128c75782818151811061289f5761289e6137e5565b5b60200260200101518282815181106128ba576128b96137e5565b5b6020026020010181815250505b80806128d290613814565b915050612862565b5080600260008973ffffffffffffffffffffffffffffffffffffffff1673ffffffffffffffffffffffffffffffffffffffff1681526020019081526020016000206001019080519060200190612931929190612b40565b505050505050505050565b6000600260008373ffffffffffffffffffffffffffffffffffffffff1673ffffffffffffffffffffffffffffffffffffffff16815260200190815260200160002060030160009054906101000a900460ff169050919050565b600080600260008573ffffffffffffffffffffffffffffffffffffffff1673ffffffffffffffffffffffffffffffffffffffff168152602001908152602001600020600101805480602002602001604051908101604052809291908181526020018280548015612a2457602002820191906000526020600020905b815481526020019060010190808311612a10575b50505050509050600081511180612a625750600115156004600085815260200190815260200160002060010160149054906101000a900460ff161515145b15612a71576001915050612a77565b60009150505b92915050565b60405180610140016040528060008152602001600081526020016000151581526020016000151581526020016000815260200160008152602001600015158152602001600015158152602001600073ffffffffffffffffffffffffffffffffffffffff168152602001600073ffffffffffffffffffffffffffffffffffffffff1681525090565b604051806080016040528060006001811115612b2357612b22613236565b5b815260200160608152602001600081526020016000151581525090565b828054828255906000526020600020908101928215612b7c579160200282015b82811115612b7b578251825591602001919060010190612b60565b5b509050612b899190612bcd565b5090565b604051806080016040528060008152602001600073ffffffffffffffffffffffffffffffffffffffff168152602001600015158152602001600081525090565b5b80821115612be6576000816000905550600101612bce565b5090565b600082825260208201905092915050565b7f66616c6c00000000000000000000000000000000000000000000000000000000600082015250565b6000612c31600483612bea565b9150612c3c82612bfb565b602082019050919050565b600073ffffffffffffffffffffffffffffffffffffffff82169050919050565b6000612c7282612c47565b9050919050565b612c8281612c67565b82525050565b6000819050919050565b612c9b81612c88565b82525050565b600082825260208201905092915050565b50565b6000612cc2600083612ca1565b9150612ccd82612cb2565b600082019050919050565b60006080820190508181036000830152612cf181612c24565b9050612d006020830185612c79565b612d0d6040830184612c92565b8181036060830152612d1e81612cb5565b90509392505050565b7f66616c6c6261636b000000000000000000000000000000000000000000000000600082015250565b6000612d5d600883612bea565b9150612d6882612d27565b602082019050919050565b82818337600083830152505050565b6000601f19601f8301169050919050565b6000612d9f8385612ca1565b9350612dac838584612d73565b612db583612d82565b840190509392505050565b60006080820190508181036000830152612dd981612d50565b9050612de86020830187612c79565b612df56040830186612c92565b8181036060830152612e08818486612d93565b905095945050505050565b6000604051905090565b600080fd5b600080fd5b612e3081612c88565b8114612e3b57600080fd5b50565b600081359050612e4d81612e27565b92915050565b600060208284031215612e6957612e68612e1d565b5b6000612e7784828501612e3e565b91505092915050565b600080fd5b7f4e487b7100000000000000000000000000000000000000000000000000000000600052604160045260246000fd5b612ebd82612d82565b810181811067ffffffffffffffff82111715612edc57612edb612e85565b5b80604052505050565b6000612eef612e13565b9050612efb8282612eb4565b919050565b600067ffffffffffffffff821115612f1b57612f1a612e85565b5b602082029050602081019050919050565b600080fd5b6000612f44612f3f84612f00565b612ee5565b90508083825260208201905060208402830185811115612f6757612f66612f2c565b5b835b81811015612f905780612f7c8882612e3e565b845260208401935050602081019050612f69565b5050509392505050565b600082601f830112612faf57612fae612e80565b5b8135612fbf848260208601612f31565b91505092915050565b60008060408385031215612fdf57612fde612e1d565b5b600083013567ffffffffffffffff811115612ffd57612ffc612e22565b5b61300985828601612f9a565b925050602083013567ffffffffffffffff81111561302a57613029612e22565b5b61303685828601612f9a565b9150509250929050565b61304981612c67565b811461305457600080fd5b50565b60008135905061306681613040565b92915050565b6000806040838503121561308357613082612e1d565b5b600061309185828601613057565b92505060206130a285828601612e3e565b9150509250929050565b60008115159050919050565b6130c1816130ac565b82525050565b60006020820190506130dc60008301846130b8565b92915050565b6130eb81612c88565b82525050565b6130fa816130ac565b82525050565b600061310b82612c47565b9050919050565b61311b81613100565b82525050565b6101408201600082015161313860008501826130e2565b50602082015161314b60208501826130e2565b50604082015161315e60408501826130f1565b50606082015161317160608501826130f1565b50608082015161318460808501826130e2565b5060a082015161319760a08501826130e2565b5060c08201516131aa60c08501826130f1565b5060e08201516131bd60e08501826130f1565b506101008201516131d2610100850182613112565b506101208201516131e7610120850182613112565b50505050565b6000610140820190506132036000830184613121565b92915050565b60006020828403121561321f5761321e612e1d565b5b600061322d84828501613057565b91505092915050565b7f4e487b7100000000000000000000000000000000000000000000000000000000600052602160045260246000fd5b6002811061327657613275613236565b5b50565b600081905061328782613265565b919050565b600061329782613279565b9050919050565b6132a78161328c565b82525050565b600081519050919050565b600082825260208201905092915050565b6000819050602082019050919050565b60006132e583836130e2565b60208301905092915050565b6000602082019050919050565b6000613309826132ad565b61331381856132b8565b935061331e836132c9565b8060005b8381101561334f57815161333688826132d9565b9750613341836132f1565b925050600181019050613322565b5085935050505092915050565b6000608083016000830151613374600086018261329e565b506020830151848203602086015261338c82826132fe565b91505060408301516133a160408601826130e2565b5060608301516133b460608601826130f1565b508091505092915050565b600060208201905081810360008301526133d9818461335c565b905092915050565b6133ea816130ac565b81146133f557600080fd5b50565b600081359050613407816133e1565b92915050565b60006020828403121561342357613422612e1d565b5b6000613431848285016133f8565b91505092915050565b61344381612c67565b82525050565b60808201600082015161345f60008501826130e2565b506020820151613472602085018261343a565b50604082015161348560408501826130f1565b50606082015161349860608501826130e2565b50505050565b60006080820190506134b36000830184613449565b92915050565b6134c281613100565b81146134cd57600080fd5b50565b6000813590506134df816134b9565b92915050565b600080604083850312156134fc576134fb612e1d565b5b600061350a858286016134d0565b925050602061351b85828601612e3e565b9150509250929050565b60006020828403121561353b5761353a612e1d565b5b6000613549848285016134d0565b91505092915050565b7f4461746120696e636f6e73697374656e63790000000000000000000000000000600082015250565b6000613588601283612bea565b915061359382613552565b602082019050919050565b600060208201905081810360008301526135b78161357b565b9050919050565b7f4e487b7100000000000000000000000000000000000000000000000000000000600052601160045260246000fd5b60006135f882612c88565b915061360383612c88565b925082820261361181612c88565b91508282048414831517613628576136276135be565b5b5092915050565b7f57726f6e6720616d6f756e742070616964000000000000000000000000000000600082015250565b6000613665601183612bea565b91506136708261362f565b602082019050919050565b6000602082019050818103600083015261369481613658565b9050919050565b7f596f7520617265206e6f7420612072656e746572207468657265666f7265207960008201527f6f75277265206e6f7420616c6c6f77656420746f20726567697374657220726f60208201527f6f6d730000000000000000000000000000000000000000000000000000000000604082015250565b600061371d604383612bea565b91506137288261369b565b606082019050919050565b6000602082019050818103600083015261374c81613710565b9050919050565b7f496e636f6e73697374656e7420696e666f726d6174696f6e2070726f7669646560008201527f642e000000000000000000000000000000000000000000000000000000000000602082015250565b60006137af602283612bea565b91506137ba82613753565b604082019050919050565b600060208201905081810360008301526137de816137a2565b9050919050565b7f4e487b7100000000000000000000000000000000000000000000000000000000600052603260045260246000fd5b600061381f82612c88565b91507fffffffffffffffffffffffffffffffffffffffffffffffffffffffffffffffff8203613851576138506135be565b5b600182019050919050565b7f5573657220616c72656164792072656769737465726564000000000000000000600082015250565b6000613892601783612bea565b915061389d8261385c565b602082019050919050565b600060208201905081810360008301526138c181613885565b9050919050565b7f596f7520617265206e6f7420616e20617574686f72697a656420757365720000600082015250565b60006138fe601e83612bea565b9150613909826138c8565b602082019050919050565b6000602082019050818103600083015261392d816138f1565b9050919050565b7f52656e746572206973206e6f7420616e20617574686f72697a65642075736572600082015250565b600061396a602083612bea565b915061397582613934565b602082019050919050565b600060208201905081810360008301526139998161395d565b9050919050565b7f53747564656e74206f7220726f6f6d20616c726561647920696e20636f6e747260008201527f6163740000000000000000000000000000000000000000000000000000000000602082015250565b60006139fc602383612bea565b9150613a07826139a0565b604082019050919050565b60006020820190508181036000830152613a2b816139ef565b9050919050565b7f496e636f6e73697374656e6379206265747765656e20726f6f6d206f776e657260008201527f20616e642072656e746572000000000000000000000000000000000000000000602082015250565b6000613a8e602b83612bea565b9150613a9982613a32565b604082019050919050565b60006020820190508181036000830152613abd81613a81565b9050919050565b7f546869732072656e746572277320726f6f6d732061726520616c6c20616c726560008201527f616479206f636375706965640000000000000000000000000000000000000000602082015250565b6000613b20602c83612bea565b9150613b2b82613ac4565b604082019050919050565b60006020820190508181036000830152613b4f81613b13565b9050919050565b6000613b6182612c88565b9150613b6c83612c88565b9250828201905080821115613b8457613b836135be565b5b92915050565b6000613b9582612c88565b9150613ba083612c88565b9250828203905081811115613bb857613bb76135be565b5b9291505056fea26469706673582212209ad7a4de2dc055734a753e745c395e51fdf322679637b4b87f3ce773f5d0789a64736f6c63430008110033",
  "immutableReferences": {},
  "source": "// SPDX-License-Identifier: GPL - 3.0\n\npragma solidity >= 0.7.0;\n\ncontract Affitto {\n\n    event Log(string func, address sender, uint value, bytes data);\n\n    struct contract_instance {\n        uint contract_id;\n        uint room_id;\n        bool student_paid;\n        bool renter_paid;\n        uint amt_paid_student;\n        uint amt_paid_renter;\n        bool concluded_student;\n        bool concluded_renter;\n        address payable student;\n        address payable renter;\n    }\n\n    struct room {\n        uint id;\n        address owner;\n        bool occupied;\n        uint deposit;\n    }\n\n    // the bool variable already_init is used to check if the couple (key, struct) has already been explicitely set (solidity automatically )\n    struct user {\n        Role role;\n        uint[] room_record;\n        uint num_rooms;\n        bool already_init;\n    }\n\n    enum Role {\n        Renter,\n        Student\n    }\n\n    address payable contract_address = payable(address(this));\n    mapping(uint => contract_instance) contract_record;         // associa a ogni id la rispettiva struct di contratto\n    mapping(address => user) user_info;                        // associa a ogni indirizzo il suo ruolo (student: 0, renter: 1)\n    mapping(address => uint[]) renters_rooms;                  // associa a ogni renter un array che contiene l'id delle sue stanze\n    mapping(uint => room) rooms_record;    \n    uint conversion_rate = 586099570929370;                     // DA CHIEDERE ALL'ESTERNO?\n    uint num_contracts=0;                                         // var globale che incremento a ogni nuovo contratto e la uso come id\n\n    // constructor() {\n    //     //contract_record = new mapping(uint => contract_instance); // non chiaro come si inizializza\n    //     num_contracts = 0;\n    // }\n\n    function register_user(bool role_id) public {\n        // Doesn't allow double registrations\n        require(!user_info[msg.sender].already_init, \"User already registered\");\n        uint256[] memory a = new uint256[](0);\n        // false --> student, true --> renter\n        if (role_id) {\n            user_info[msg.sender] = user({role: Role.Renter, room_record: a, num_rooms: 0, already_init: true});\n        }\n        else {\n            user_info[msg.sender] = user({role: Role.Student, room_record: a, num_rooms: 0, already_init: true});\n        }\n        \n    }\n\n    function register_rooms(uint[] memory rooms, uint[] memory deposits) public {\n        // controlliamo che il chiamante sia un renter\n        require(user_info[msg.sender].role == Role.Renter, \"You are not a renter therefore you're not allowed to register rooms\");\n        require(rooms.length == deposits.length, \"Inconsistent information provided.\");\n        uint l = rooms.length;\n        user_info[msg.sender].num_rooms = l; \n        // TODO: VERIFICARE CHE IL RENTER SIA EFFETTIVAMENTE IL PROPRIETARIO DELLE STANZE (sia fa una zkp nelle nft? chi lo sa)\n\n        for (uint i = 0; i < l; i++) {\n            room memory new_room = room({id: rooms[i], owner: msg.sender, occupied: false, deposit: deposits[i]});\n            renters_rooms[msg.sender][i] = rooms[i];\n            rooms_record[new_room.id] = new_room;\n        }\n        \n    }   \n\n    // If the student has his heart already set on a specific room \n    function inizialize(address payable renter, uint room_id) public {\n        require(check_user_already_registered(msg.sender), \"You are not an authorized user\");\n        require(check_user_already_registered(renter), \"Renter is not an authorized user\");\n\n        address payable student = payable(msg.sender);\n        \n        // check che lo studente non sia gi in una \"istanza\" di contratto o che la stanza non sia gi occupata\n        require(check_if_already_in_contract(student, room_id) == false, \"Student or room already in contract\"); // controllare che l'inizializzazione venga interrotta e venga emesso il messaggio di errore\n        \n        // check that the renter is the room's owner\n        require(rooms_record[room_id].owner == renter, \"Inconsistency between room owner and renter\");\n\n        // se n lo student n la stanza sono gi in un contratto, possiamo procedere alla creazione della struct che rappresenta l'istanza del contratto\n        uint new_id = num_contracts;\n        num_contracts++;\n        rooms_record[room_id].occupied = true;\n        contract_instance memory instance = contract_instance({\n            contract_id: new_id, \n            room_id: room_id, \n            student_paid: false, \n            renter_paid: false, \n            amt_paid_student: 0, \n            amt_paid_renter: 0, \n            concluded_student: false, \n            concluded_renter: false, \n            student: student, \n            renter: renter\n        });\n\n        contract_record[new_id] = instance;\n        user_info[student].room_record.push(new_id);\n        user_info[renter].room_record.push(new_id);\n    }\n\n    // if the student doesn't care about which room he gets assigned\n    function inizialize(address payable renter) public {\n        require(check_user_already_registered(msg.sender), \"You are not an authorized user\");\n        require(check_user_already_registered(renter), \"Renter is not an authorized user\");\n        address payable student = payable(msg.sender);\n        \n        uint room_id;\n        bool room_found = false;\n\n        // Checks if the owner has any rooms available\n        for (uint i = 0; i < user_info[renter].num_rooms; i++) {\n            if (!rooms_record[renters_rooms[renter][i]].occupied) {\n                room_found = true;\n                room_id = rooms_record[renters_rooms[renter][i]].id;\n                break;\n            }\n        }\n        \n        require(room_found, \"This renter's rooms are all already occupied\"); \n\n        uint new_id = num_contracts;\n        num_contracts++;\n        rooms_record[room_id].occupied = true;\n        contract_instance memory instance = contract_instance({\n            contract_id: new_id, \n            room_id: room_id, \n            student_paid: false, \n            renter_paid: false, \n            amt_paid_student: 0, \n            amt_paid_renter: 0, \n            concluded_student: false, \n            concluded_renter: false, \n            student: student, \n            renter: renter\n        });\n        contract_record[new_id] = instance;\n        user_info[student].room_record.push(new_id);\n        user_info[renter].room_record.push(new_id);\n    \n    }\n\n    \n    function student_pay_deposit() public payable {\n        Role role = user_info[msg.sender].role;\n        require(role == Role.Student);\n        \n        uint contract_id = user_info[msg.sender].room_record[0];\n        contract_instance memory instance = contract_record[contract_id];\n        uint deposit = rooms_record[instance.room_id].deposit;\n        uint paid_amount = msg.value;\n        require(paid_amount == conversion_rate * deposit, \"Wrong amount paid\");\n        \n        instance.amt_paid_student = paid_amount;\n        instance.student_paid = true;\n        \n    }\n\n    function renter_pay_deposit(uint contract_id) public payable {\n        contract_instance memory instance = contract_record[contract_id];\n        Role role = user_info[msg.sender].role;\n        require(role == Role.Renter, \"Data inconsistency\"); // probabilmente inutile (gi implicitamente incluso nel secondo require)\n        require(msg.sender == instance.renter, \"Data inconsistency\");\n        uint deposit = rooms_record[instance.room_id].deposit;\n        uint paid_amount = msg.value;\n        require(paid_amount == conversion_rate * deposit, \"Wrong amount paid\"); \n        instance.amt_paid_renter = paid_amount;\n        instance.renter_paid = true;\n    }\n\n    function withdraw_from_contract(uint contract_id) public {\n        // IDEA: lo studente non pu ritirarsi prima di aver pagato la caparra, oppure pu ritirarsi gratuitamente nel lasso di tempo \n        // che ha per pagare la caparra\n        address receder = msg.sender;\n        address other;\n        contract_instance memory instance = contract_record[contract_id];\n        if (user_info[msg.sender].role == Role.Student) {\n            other = contract_record[contract_id].renter;\n        }\n        else {\n            other = contract_record[contract_id].student;\n        }\n        uint room_id = instance.room_id;\n\n        delete_contract_instance(receder, other, contract_id, room_id);\n        \n        \n        payable(other).transfer(instance.amt_paid_student + instance.amt_paid_renter);\n    }\n\n    \n\n    function end_contract_successfully(uint contract_id) public returns (bool) {\n        contract_instance memory instance = contract_record[contract_id];\n        address student;\n        address renter;\n        if (user_info[msg.sender].role == Role.Student) {\n            student = msg.sender;\n            instance.concluded_student = true;\n            renter = instance.renter;\n        }\n        else {\n            renter = msg.sender;\n            instance.concluded_renter = true;\n            student = instance.student;\n        }\n\n        if (instance.concluded_renter && instance.concluded_student) {\n            delete_contract_instance(student, renter, contract_id, instance.room_id);\n            payable(student).transfer(instance.amt_paid_student);\n            payable(renter).transfer(instance.amt_paid_renter);\n            return true;\n        }\n        return false;\n    }\n\n\n    function get_user_info(address add) public view returns (user memory) {\n        return user_info[add];\n    }\n\n    function get_contract_info(uint256 contract_id) public view returns (contract_instance memory) {\n        return contract_record[contract_id];\n    }\n\n\n    function get_room_info(uint room_id) public view returns (room memory) {\n        return rooms_record[room_id];\n    }\n\n    function check_if_already_paid(address addr, uint contract_id) public view returns (bool) {\n        Role role = user_info[addr].role;\n        contract_instance memory instance = contract_record[contract_id];\n        if (role == Role.Renter) {\n            require(addr == instance.renter, \"Data inconsistency\");\n            return instance.renter_paid;\n        }\n        else {\n            require(addr == instance.student, \"Data inconsistency\");\n            return instance.student_paid;\n        }\n    }\n\n\n    function check_if_already_in_contract(address student, uint room_id) private view returns (bool) {\n        // controlla se lo studente o la stanza (disgiunzione inclusiva) sono gi in un contratto\n        \n        uint[] memory student_array = user_info[student].room_record;\n\n        if (student_array.length > 0 || rooms_record[room_id].occupied == true) {\n            return true;\n        }\n        return false;\n\n    }\n\n    function check_user_already_registered(address add) private view returns (bool) {\n        return user_info[add].already_init;\n    } \n\n    function delete_contract_instance(address a1, address a2, uint contract_id, uint room_id) private {\n        \n        // delete the contract instance\n        delete(contract_record[contract_id]);\n\n        // mark the room as not occupied\n        rooms_record[room_id].occupied = false;\n        \n        // modify the list of contract instances the addresses are a part of\n        uint[] memory a1_record = user_info[a1].room_record;\n        uint[] memory a1_new_record = new uint[](a1_record.length - 1); // la lunghezza  uno in meno perch tolgo l'id di contratto dall'array\n        uint[] memory a2_record = user_info[a2].room_record;\n        uint[] memory a2_new_record = new uint[](a2_record.length - 1);\n\n        \n        for (uint i = 0; i < a1_record.length; i++) {\n            if (a1_record[i] != contract_id) {\n                a1_new_record[i] = a1_record[i];\n            }  \n        }\n        user_info[a1].room_record = a1_new_record; \n\n        for (uint i = 0; i < a2_record.length; i++) {\n            if (a2_record[i] != contract_id) {\n                a2_new_record[i] = a2_record[i];\n            }  \n        }\n        user_info[a2].room_record = a2_new_record;\n    } \n\n    function string_to_uint(string memory s) private pure returns (uint) {\n        bytes memory b = bytes(s);\n        uint i;\n        uint result = 0;\n        for (i = 0; i < b.length; i++) {\n            uint c = uint(uint8(b[i]));\n            if (c >= 48 && c <= 57) {\n                result = result * 10 + (c - 48);\n            }\n        }\n        return result;\n    }\n\n    function check_if_user_already_registered(address addr) private view returns (bool) {\n        return user_info[addr].already_init;\n    }\n\n    fallback() external payable {\n        emit Log(\"fallback\", msg.sender, msg.value, msg.data);\n    }\n\n    receive() external payable {\n        emit Log(\"fall\", msg.sender, msg.value, \"\");\n    }\n\n    \n}\n",
  "sourcePath": "/home/davipase/Blockchain/HouseLocker/smart_contracts/Affitto/contracts/Affitto.sol",
  "compiler": {
    "name": "solc",
    "version": "0.8.17+commit.8df45f5f.Emscripten.clang"
  },
  "schemaVersion": "3.4.14",
  "updatedAt": "2023-06-22T15:07:55.583Z",
  "networkType": "ethereum",
  "devdoc": {
    "kind": "dev",
    "methods": {},
    "version": 1
  },
  "userdoc": {
    "kind": "user",
    "methods": {},
    "version": 1
  }
}