{
  "contractName": "Prova",
  "abi": [
    {
      "inputs": [],
      "stateMutability": "nonpayable",
      "type": "constructor"
    },
    {
      "stateMutability": "payable",
      "type": "receive"
    },
    {
      "inputs": [
        {
          "internalType": "bool",
          "name": "role_id",
          "type": "bool"
        }
      ],
      "name": "create_user",
      "outputs": [],
      "stateMutability": "nonpayable",
      "type": "function"
    },
    {
      "inputs": [
        {
          "internalType": "uint256[]",
          "name": "rooms",
          "type": "uint256[]"
        },
        {
          "internalType": "uint256[]",
          "name": "deposits",
          "type": "uint256[]"
        }
      ],
      "name": "register_rooms",
      "outputs": [],
      "stateMutability": "nonpayable",
      "type": "function"
    },
    {
      "inputs": [
        {
          "internalType": "address payable",
          "name": "renter",
          "type": "address"
        },
        {
          "internalType": "uint256",
          "name": "room_id",
          "type": "uint256"
        }
      ],
      "name": "inizialize",
      "outputs": [],
      "stateMutability": "nonpayable",
      "type": "function"
    },
    {
      "inputs": [
        {
          "internalType": "address payable",
          "name": "renter",
          "type": "address"
        }
      ],
      "name": "inizialize",
      "outputs": [],
      "stateMutability": "nonpayable",
      "type": "function"
    },
    {
      "inputs": [
        {
          "internalType": "uint256",
          "name": "contract_id",
          "type": "uint256"
        }
      ],
      "name": "withdraw_from_contract",
      "outputs": [],
      "stateMutability": "nonpayable",
      "type": "function"
    },
    {
      "inputs": [
        {
          "internalType": "uint256",
          "name": "contract_id",
          "type": "uint256"
        }
      ],
      "name": "end_contract_successfully",
      "outputs": [
        {
          "internalType": "bool",
          "name": "",
          "type": "bool"
        }
      ],
      "stateMutability": "nonpayable",
      "type": "function"
    },
    {
      "inputs": [
        {
          "internalType": "address",
          "name": "add",
          "type": "address"
        }
      ],
      "name": "get_user_info",
      "outputs": [
        {
          "components": [
            {
              "internalType": "enum Prova.Role",
              "name": "role",
              "type": "uint8"
            },
            {
              "internalType": "uint256[]",
              "name": "room_record",
              "type": "uint256[]"
            },
            {
              "internalType": "uint256",
              "name": "num_rooms",
              "type": "uint256"
            },
            {
              "internalType": "bool",
              "name": "already_init",
              "type": "bool"
            }
          ],
          "internalType": "struct Prova.user",
          "name": "",
          "type": "tuple"
        }
      ],
      "stateMutability": "view",
      "type": "function"
    },
    {
      "inputs": [
        {
          "internalType": "uint256",
          "name": "contract_id",
          "type": "uint256"
        }
      ],
      "name": "get_contract_info",
      "outputs": [
        {
          "components": [
            {
              "internalType": "uint256",
              "name": "contract_id",
              "type": "uint256"
            },
            {
              "internalType": "uint256",
              "name": "room_id",
              "type": "uint256"
            },
            {
              "internalType": "bool",
              "name": "student_paid",
              "type": "bool"
            },
            {
              "internalType": "bool",
              "name": "renter_paid",
              "type": "bool"
            },
            {
              "internalType": "uint256",
              "name": "amt_paid",
              "type": "uint256"
            },
            {
              "internalType": "address payable",
              "name": "student",
              "type": "address"
            },
            {
              "internalType": "address payable",
              "name": "renter",
              "type": "address"
            }
          ],
          "internalType": "struct Prova.contract_instance",
          "name": "",
          "type": "tuple"
        }
      ],
      "stateMutability": "view",
      "type": "function"
    },
    {
      "inputs": [
        {
          "internalType": "uint256",
          "name": "room_id",
          "type": "uint256"
        }
      ],
      "name": "get_room_info",
      "outputs": [
        {
          "components": [
            {
              "internalType": "uint256",
              "name": "id",
              "type": "uint256"
            },
            {
              "internalType": "address",
              "name": "owner",
              "type": "address"
            },
            {
              "internalType": "bool",
              "name": "occupied",
              "type": "bool"
            },
            {
              "internalType": "uint256",
              "name": "deposit",
              "type": "uint256"
            }
          ],
          "internalType": "struct Prova.room",
          "name": "",
          "type": "tuple"
        }
      ],
      "stateMutability": "view",
      "type": "function"
    }
  ],
  "bytecode": "0x6080604052305f806101000a81548173ffffffffffffffffffffffffffffffffffffffff021916908373ffffffffffffffffffffffffffffffffffffffff1602179055506602150df0ba6eda600555348015610059575f80fd5b505f600681905550612c608061006e5f395ff3fe608060405260043610610089575f3560e01c80638c4db025116100585780638c4db02514610412578063a1370f1b1461044e578063d8f229ab1461048a578063da9ae234146104b2578063db3189b7146104da57610346565b806322aece9c1461034a57806326246a391461037257806365cdf7c31461039a578063774deb42146103d657610346565b36610346575f60025f3373ffffffffffffffffffffffffffffffffffffffff1673ffffffffffffffffffffffffffffffffffffffff1681526020019081526020015f205f015f9054906101000a900460ff1690506001808111156100f0576100ef611f43565b5b81600181111561010357610102611f43565b5b14610143576040517f08c379a000000000000000000000000000000000000000000000000000000000815260040161013a90611fca565b60405180910390fd5b5f60025f3373ffffffffffffffffffffffffffffffffffffffff1673ffffffffffffffffffffffffffffffffffffffff1681526020019081526020015f206001015f8154811061019657610195611fe8565b5b905f5260205f20015490505f60015f8381526020019081526020015f206040518060e00160405290815f820154815260200160018201548152602001600282015f9054906101000a900460ff161515151581526020016002820160019054906101000a900460ff1615151515815260200160038201548152602001600482015f9054906101000a900473ffffffffffffffffffffffffffffffffffffffff1673ffffffffffffffffffffffffffffffffffffffff1673ffffffffffffffffffffffffffffffffffffffff168152602001600582015f9054906101000a900473ffffffffffffffffffffffffffffffffffffffff1673ffffffffffffffffffffffffffffffffffffffff1673ffffffffffffffffffffffffffffffffffffffff168152505090505f60045f836020015181526020019081526020015f206002015490505f349050816005546102ea919061204b565b811461032b576040517f08c379a0000000000000000000000000000000000000000000000000000000008152600401610322906120d6565b60405180910390fd5b80836080018181525050600183604001901515908115158152005b5f80fd5b348015610355575f80fd5b50610370600480360381019061036b919061227f565b610502565b005b34801561037d575f80fd5b506103986004803603810190610393919061232a565b6107db565b005b3480156103a5575f80fd5b506103c060048036038101906103bb9190612355565b610a96565b6040516103cd919061238f565b60405180910390f35b3480156103e1575f80fd5b506103fc60048036038101906103f79190612355565b610a9c565b6040516104099190612491565b60405180910390f35b34801561041d575f80fd5b50610438600480360381019061043391906124e5565b610bc3565b604051610445919061265e565b60405180910390f35b348015610459575f80fd5b50610474600480360381019061046f9190612355565b610ccd565b60405161048191906126e0565b60405180910390f35b348015610495575f80fd5b506104b060048036038101906104ab9190612723565b610d7b565b005b3480156104bd575f80fd5b506104d860048036038101906104d39190612761565b61117a565b005b3480156104e5575f80fd5b5061050060048036038101906104fb9190612355565b611620565b005b5f600181111561051557610514611f43565b5b60025f3373ffffffffffffffffffffffffffffffffffffffff1673ffffffffffffffffffffffffffffffffffffffff1681526020019081526020015f205f015f9054906101000a900460ff16600181111561057357610572611f43565b5b146105b3576040517f08c379a00000000000000000000000000000000000000000000000000000000081526004016105aa90612822565b60405180910390fd5b80518251146105f7576040517f08c379a00000000000000000000000000000000000000000000000000000000081526004016105ee906128b0565b60405180910390fd5b5f825190508060025f3373ffffffffffffffffffffffffffffffffffffffff1673ffffffffffffffffffffffffffffffffffffffff1681526020019081526020015f20600201819055505f5b818110156107d5575f604051806080016040528086848151811061066a57610669611fe8565b5b602002602001015181526020013373ffffffffffffffffffffffffffffffffffffffff1681526020015f151581526020018584815181106106ae576106ad611fe8565b5b602002602001015181525090508482815181106106ce576106cd611fe8565b5b602002602001015160035f3373ffffffffffffffffffffffffffffffffffffffff1673ffffffffffffffffffffffffffffffffffffffff1681526020019081526020015f20838154811061072557610724611fe8565b5b905f5260205f2001819055508060045f835f015181526020019081526020015f205f820151815f01556020820151816001015f6101000a81548173ffffffffffffffffffffffffffffffffffffffff021916908373ffffffffffffffffffffffffffffffffffffffff16021790555060408201518160010160146101000a81548160ff021916908315150217905550606082015181600201559050505080806107cd906128ce565b915050610643565b50505050565b60025f3373ffffffffffffffffffffffffffffffffffffffff1673ffffffffffffffffffffffffffffffffffffffff1681526020019081526020015f206003015f9054906101000a900460ff1615610868576040517f08c379a000000000000000000000000000000000000000000000000000000000815260040161085f9061295f565b60405180910390fd5b5f8067ffffffffffffffff81111561088357610882612119565b5b6040519080825280602002602001820160405280156108b15781602001602082028036833780820191505090505b50905081156109a85760405180608001604052805f60018111156108d8576108d7611f43565b5b81526020018281526020015f81526020016001151581525060025f3373ffffffffffffffffffffffffffffffffffffffff1673ffffffffffffffffffffffffffffffffffffffff1681526020019081526020015f205f820151815f015f6101000a81548160ff0219169083600181111561095557610954611f43565b5b02179055506020820151816001019080519060200190610976929190611e02565b50604082015181600201556060820151816003015f6101000a81548160ff021916908315150217905550905050610a92565b60405180608001604052806001808111156109c6576109c5611f43565b5b81526020018281526020015f81526020016001151581525060025f3373ffffffffffffffffffffffffffffffffffffffff1673ffffffffffffffffffffffffffffffffffffffff1681526020019081526020015f205f820151815f015f6101000a81548160ff02191690836001811115610a4357610a42611f43565b5b02179055506020820151816001019080519060200190610a64929190611e02565b50604082015181600201556060820151816003015f6101000a81548160ff0219169083151502179055509050505b5050565b5f919050565b610aa4611e4d565b60015f8381526020019081526020015f206040518060e00160405290815f820154815260200160018201548152602001600282015f9054906101000a900460ff161515151581526020016002820160019054906101000a900460ff1615151515815260200160038201548152602001600482015f9054906101000a900473ffffffffffffffffffffffffffffffffffffffff1673ffffffffffffffffffffffffffffffffffffffff1673ffffffffffffffffffffffffffffffffffffffff168152602001600582015f9054906101000a900473ffffffffffffffffffffffffffffffffffffffff1673ffffffffffffffffffffffffffffffffffffffff1673ffffffffffffffffffffffffffffffffffffffff16815250509050919050565b610bcb611eb3565b60025f8373ffffffffffffffffffffffffffffffffffffffff1673ffffffffffffffffffffffffffffffffffffffff1681526020019081526020015f206040518060800160405290815f82015f9054906101000a900460ff166001811115610c3657610c35611f43565b5b6001811115610c4857610c47611f43565b5b815260200160018201805480602002602001604051908101604052809291908181526020018280548015610c9957602002820191905f5260205f20905b815481526020019060010190808311610c85575b5050505050815260200160028201548152602001600382015f9054906101000a900460ff1615151515815250509050919050565b610cd5611eec565b60045f8381526020019081526020015f206040518060800160405290815f8201548152602001600182015f9054906101000a900473ffffffffffffffffffffffffffffffffffffffff1673ffffffffffffffffffffffffffffffffffffffff1673ffffffffffffffffffffffffffffffffffffffff1681526020016001820160149054906101000a900460ff161515151581526020016002820154815250509050919050565b610d843361188b565b610dc3576040517f08c379a0000000000000000000000000000000000000000000000000000000008152600401610dba906129c7565b60405180910390fd5b610dcc8261188b565b610e0b576040517f08c379a0000000000000000000000000000000000000000000000000000000008152600401610e0290612a2f565b60405180910390fd5b5f3390505f1515610e1c82846118e0565b151514610e5e576040517f08c379a0000000000000000000000000000000000000000000000000000000008152600401610e5590612abd565b60405180910390fd5b8273ffffffffffffffffffffffffffffffffffffffff1660045f8481526020019081526020015f206001015f9054906101000a900473ffffffffffffffffffffffffffffffffffffffff1673ffffffffffffffffffffffffffffffffffffffff1614610eff576040517f08c379a0000000000000000000000000000000000000000000000000000000008152600401610ef690612b4b565b60405180910390fd5b5f600654905060065f815480929190610f17906128ce565b9190505550600160045f8581526020019081526020015f2060010160146101000a81548160ff0219169083151502179055505f6040518060e001604052808381526020018581526020015f151581526020015f151581526020015f81526020018473ffffffffffffffffffffffffffffffffffffffff1681526020018673ffffffffffffffffffffffffffffffffffffffff1681525090508060015f8481526020019081526020015f205f820151815f0155602082015181600101556040820151816002015f6101000a81548160ff02191690831515021790555060608201518160020160016101000a81548160ff0219169083151502179055506080820151816003015560a0820151816004015f6101000a81548173ffffffffffffffffffffffffffffffffffffffff021916908373ffffffffffffffffffffffffffffffffffffffff16021790555060c0820151816005015f6101000a81548173ffffffffffffffffffffffffffffffffffffffff021916908373ffffffffffffffffffffffffffffffffffffffff16021790555090505060025f8473ffffffffffffffffffffffffffffffffffffffff1673ffffffffffffffffffffffffffffffffffffffff1681526020019081526020015f2060010182908060018154018082558091505060019003905f5260205f20015f909190919091505560025f8673ffffffffffffffffffffffffffffffffffffffff1673ffffffffffffffffffffffffffffffffffffffff1681526020019081526020015f2060010182908060018154018082558091505060019003905f5260205f20015f90919091909150555050505050565b6111833361188b565b6111c2576040517f08c379a00000000000000000000000000000000000000000000000000000000081526004016111b9906129c7565b60405180910390fd5b6111cb8161188b565b61120a576040517f08c379a000000000000000000000000000000000000000000000000000000000815260040161120190612a2f565b60405180910390fd5b5f3390505f805f90505f5b60025f8673ffffffffffffffffffffffffffffffffffffffff1673ffffffffffffffffffffffffffffffffffffffff1681526020019081526020015f20600201548110156113635760045f60035f8873ffffffffffffffffffffffffffffffffffffffff1673ffffffffffffffffffffffffffffffffffffffff1681526020019081526020015f2083815481106112af576112ae611fe8565b5b905f5260205f20015481526020019081526020015f2060010160149054906101000a900460ff16611350576001915060045f60035f8873ffffffffffffffffffffffffffffffffffffffff1673ffffffffffffffffffffffffffffffffffffffff1681526020019081526020015f2083815481106113305761132f611fe8565b5b905f5260205f20015481526020019081526020015f205f01549250611363565b808061135b906128ce565b915050611215565b50806113a4576040517f08c379a000000000000000000000000000000000000000000000000000000000815260040161139b90612bd9565b60405180910390fd5b5f600654905060065f8154809291906113bc906128ce565b9190505550600160045f8581526020019081526020015f2060010160146101000a81548160ff0219169083151502179055505f6040518060e001604052808381526020018581526020015f151581526020015f151581526020015f81526020018673ffffffffffffffffffffffffffffffffffffffff1681526020018773ffffffffffffffffffffffffffffffffffffffff1681525090508060015f8481526020019081526020015f205f820151815f0155602082015181600101556040820151816002015f6101000a81548160ff02191690831515021790555060608201518160020160016101000a81548160ff0219169083151502179055506080820151816003015560a0820151816004015f6101000a81548173ffffffffffffffffffffffffffffffffffffffff021916908373ffffffffffffffffffffffffffffffffffffffff16021790555060c0820151816005015f6101000a81548173ffffffffffffffffffffffffffffffffffffffff021916908373ffffffffffffffffffffffffffffffffffffffff16021790555090505060025f8673ffffffffffffffffffffffffffffffffffffffff1673ffffffffffffffffffffffffffffffffffffffff1681526020019081526020015f2060010182908060018154018082558091505060019003905f5260205f20015f909190919091505560025f8773ffffffffffffffffffffffffffffffffffffffff1673ffffffffffffffffffffffffffffffffffffffff1681526020019081526020015f2060010182908060018154018082558091505060019003905f5260205f20015f9091909190915055505050505050565b5f3390505f8060015f8581526020019081526020015f206040518060e00160405290815f820154815260200160018201548152602001600282015f9054906101000a900460ff161515151581526020016002820160019054906101000a900460ff1615151515815260200160038201548152602001600482015f9054906101000a900473ffffffffffffffffffffffffffffffffffffffff1673ffffffffffffffffffffffffffffffffffffffff1673ffffffffffffffffffffffffffffffffffffffff168152602001600582015f9054906101000a900473ffffffffffffffffffffffffffffffffffffffff1673ffffffffffffffffffffffffffffffffffffffff1673ffffffffffffffffffffffffffffffffffffffff1681525050905060018081111561175357611752611f43565b5b60025f3373ffffffffffffffffffffffffffffffffffffffff1673ffffffffffffffffffffffffffffffffffffffff1681526020019081526020015f205f015f9054906101000a900460ff1660018111156117b1576117b0611f43565b5b036117f15760015f8581526020019081526020015f206005015f9054906101000a900473ffffffffffffffffffffffffffffffffffffffff169150611828565b60015f8581526020019081526020015f206004015f9054906101000a900473ffffffffffffffffffffffffffffffffffffffff1691505b5f8160200151905061183c848487846119bf565b8273ffffffffffffffffffffffffffffffffffffffff166108fc836080015190811502906040515f60405180830381858888f19350505050158015611883573d5f803e3d5ffd5b505050505050565b5f60025f8373ffffffffffffffffffffffffffffffffffffffff1673ffffffffffffffffffffffffffffffffffffffff1681526020019081526020015f206003015f9054906101000a900460ff169050919050565b5f8060025f8573ffffffffffffffffffffffffffffffffffffffff1673ffffffffffffffffffffffffffffffffffffffff1681526020019081526020015f2060010180548060200260200160405190810160405280929190818152602001828054801561196a57602002820191905f5260205f20905b815481526020019060010190808311611956575b505050505090505f815111806119a557506001151560045f8581526020019081526020015f2060010160149054906101000a900460ff161515145b156119b45760019150506119b9565b5f9150505b92915050565b60015f8381526020019081526020015f205f8082015f9055600182015f9055600282015f6101000a81549060ff02191690556002820160016101000a81549060ff0219169055600382015f9055600482015f6101000a81549073ffffffffffffffffffffffffffffffffffffffff0219169055600582015f6101000a81549073ffffffffffffffffffffffffffffffffffffffff021916905550505f60045f8381526020019081526020015f2060010160146101000a81548160ff0219169083151502179055505f60025f8673ffffffffffffffffffffffffffffffffffffffff1673ffffffffffffffffffffffffffffffffffffffff1681526020019081526020015f20600101805480602002602001604051908101604052809291908181526020018280548015611b0f57602002820191905f5260205f20905b815481526020019060010190808311611afb575b505050505090505f60018251611b259190612bf7565b67ffffffffffffffff811115611b3e57611b3d612119565b5b604051908082528060200260200182016040528015611b6c5781602001602082028036833780820191505090505b5090505f60025f8773ffffffffffffffffffffffffffffffffffffffff1673ffffffffffffffffffffffffffffffffffffffff1681526020019081526020015f20600101805480602002602001604051908101604052809291908181526020018280548015611bf857602002820191905f5260205f20905b815481526020019060010190808311611be4575b505050505090505f60018251611c0e9190612bf7565b67ffffffffffffffff811115611c2757611c26612119565b5b604051908082528060200260200182016040528015611c555781602001602082028036833780820191505090505b5090505f5b8451811015611cd25786858281518110611c7757611c76611fe8565b5b602002602001015114611cbf57848181518110611c9757611c96611fe8565b5b6020026020010151848281518110611cb257611cb1611fe8565b5b6020026020010181815250505b8080611cca906128ce565b915050611c5a565b508260025f8a73ffffffffffffffffffffffffffffffffffffffff1673ffffffffffffffffffffffffffffffffffffffff1681526020019081526020015f206001019080519060200190611d27929190611e02565b505f5b8251811015611da25786838281518110611d4757611d46611fe8565b5b602002602001015114611d8f57828181518110611d6757611d66611fe8565b5b6020026020010151828281518110611d8257611d81611fe8565b5b6020026020010181815250505b8080611d9a906128ce565b915050611d2a565b508060025f8973ffffffffffffffffffffffffffffffffffffffff1673ffffffffffffffffffffffffffffffffffffffff1681526020019081526020015f206001019080519060200190611df7929190611e02565b505050505050505050565b828054828255905f5260205f20908101928215611e3c579160200282015b82811115611e3b578251825591602001919060010190611e20565b5b509050611e499190611f28565b5090565b6040518060e001604052805f81526020015f81526020015f151581526020015f151581526020015f81526020015f73ffffffffffffffffffffffffffffffffffffffff1681526020015f73ffffffffffffffffffffffffffffffffffffffff1681525090565b60405180608001604052805f6001811115611ed157611ed0611f43565b5b8152602001606081526020015f81526020015f151581525090565b60405180608001604052805f81526020015f73ffffffffffffffffffffffffffffffffffffffff1681526020015f151581526020015f81525090565b5b80821115611f3f575f815f905550600101611f29565b5090565b7f4e487b71000000000000000000000000000000000000000000000000000000005f52602160045260245ffd5b5f82825260208201905092915050565b7f556e617574686f72697a6564207061796d656e740000000000000000000000005f82015250565b5f611fb4601483611f70565b9150611fbf82611f80565b602082019050919050565b5f6020820190508181035f830152611fe181611fa8565b9050919050565b7f4e487b71000000000000000000000000000000000000000000000000000000005f52603260045260245ffd5b5f819050919050565b7f4e487b71000000000000000000000000000000000000000000000000000000005f52601160045260245ffd5b5f61205582612015565b915061206083612015565b925082820261206e81612015565b915082820484148315176120855761208461201e565b5b5092915050565b7f54752076756f6c6520696e63756c616c65206d656565650000000000000000005f82015250565b5f6120c0601783611f70565b91506120cb8261208c565b602082019050919050565b5f6020820190508181035f8301526120ed816120b4565b9050919050565b5f604051905090565b5f80fd5b5f80fd5b5f80fd5b5f601f19601f8301169050919050565b7f4e487b71000000000000000000000000000000000000000000000000000000005f52604160045260245ffd5b61214f82612109565b810181811067ffffffffffffffff8211171561216e5761216d612119565b5b80604052505050565b5f6121806120f4565b905061218c8282612146565b919050565b5f67ffffffffffffffff8211156121ab576121aa612119565b5b602082029050602081019050919050565b5f80fd5b6121c981612015565b81146121d3575f80fd5b50565b5f813590506121e4816121c0565b92915050565b5f6121fc6121f784612191565b612177565b9050808382526020820190506020840283018581111561221f5761221e6121bc565b5b835b81811015612248578061223488826121d6565b845260208401935050602081019050612221565b5050509392505050565b5f82601f83011261226657612265612105565b5b81356122768482602086016121ea565b91505092915050565b5f8060408385031215612295576122946120fd565b5b5f83013567ffffffffffffffff8111156122b2576122b1612101565b5b6122be85828601612252565b925050602083013567ffffffffffffffff8111156122df576122de612101565b5b6122eb85828601612252565b9150509250929050565b5f8115159050919050565b612309816122f5565b8114612313575f80fd5b50565b5f8135905061232481612300565b92915050565b5f6020828403121561233f5761233e6120fd565b5b5f61234c84828501612316565b91505092915050565b5f6020828403121561236a576123696120fd565b5b5f612377848285016121d6565b91505092915050565b612389816122f5565b82525050565b5f6020820190506123a25f830184612380565b92915050565b6123b181612015565b82525050565b6123c0816122f5565b82525050565b5f73ffffffffffffffffffffffffffffffffffffffff82169050919050565b5f6123ef826123c6565b9050919050565b6123ff816123e5565b82525050565b60e082015f8201516124195f8501826123a8565b50602082015161242c60208501826123a8565b50604082015161243f60408501826123b7565b50606082015161245260608501826123b7565b50608082015161246560808501826123a8565b5060a082015161247860a08501826123f6565b5060c082015161248b60c08501826123f6565b50505050565b5f60e0820190506124a45f830184612405565b92915050565b5f6124b4826123c6565b9050919050565b6124c4816124aa565b81146124ce575f80fd5b50565b5f813590506124df816124bb565b92915050565b5f602082840312156124fa576124f96120fd565b5b5f612507848285016124d1565b91505092915050565b6002811061252157612520611f43565b5b50565b5f81905061253182612510565b919050565b5f61254082612524565b9050919050565b61255081612536565b82525050565b5f81519050919050565b5f82825260208201905092915050565b5f819050602082019050919050565b5f61258a83836123a8565b60208301905092915050565b5f602082019050919050565b5f6125ac82612556565b6125b68185612560565b93506125c183612570565b805f5b838110156125f15781516125d8888261257f565b97506125e383612596565b9250506001810190506125c4565b5085935050505092915050565b5f608083015f8301516126135f860182612547565b506020830151848203602086015261262b82826125a2565b915050604083015161264060408601826123a8565b50606083015161265360608601826123b7565b508091505092915050565b5f6020820190508181035f83015261267681846125fe565b905092915050565b612687816124aa565b82525050565b608082015f8201516126a15f8501826123a8565b5060208201516126b4602085018261267e565b5060408201516126c760408501826123b7565b5060608201516126da60608501826123a8565b50505050565b5f6080820190506126f35f83018461268d565b92915050565b612702816123e5565b811461270c575f80fd5b50565b5f8135905061271d816126f9565b92915050565b5f8060408385031215612739576127386120fd565b5b5f6127468582860161270f565b9250506020612757858286016121d6565b9150509250929050565b5f60208284031215612776576127756120fd565b5b5f6127838482850161270f565b91505092915050565b7f596f7520617265206e6f7420612072656e746572207468657265666f726520795f8201527f6f75277265206e6f7420616c6c6f77656420746f20726567697374657220726f60208201527f6f6d730000000000000000000000000000000000000000000000000000000000604082015250565b5f61280c604383611f70565b91506128178261278c565b606082019050919050565b5f6020820190508181035f83015261283981612800565b9050919050565b7f496e636f6e73697374656e7420696e666f726d6174696f6e2070726f766964655f8201527f642e000000000000000000000000000000000000000000000000000000000000602082015250565b5f61289a602283611f70565b91506128a582612840565b604082019050919050565b5f6020820190508181035f8301526128c78161288e565b9050919050565b5f6128d882612015565b91507fffffffffffffffffffffffffffffffffffffffffffffffffffffffffffffffff820361290a5761290961201e565b5b600182019050919050565b7f5573657220616c726561647920726567697374657265640000000000000000005f82015250565b5f612949601783611f70565b915061295482612915565b602082019050919050565b5f6020820190508181035f8301526129768161293d565b9050919050565b7f596f7520617265206e6f7420616e20617574686f72697a6564207573657200005f82015250565b5f6129b1601e83611f70565b91506129bc8261297d565b602082019050919050565b5f6020820190508181035f8301526129de816129a5565b9050919050565b7f52656e746572206973206e6f7420616e20617574686f72697a656420757365725f82015250565b5f612a19602083611f70565b9150612a24826129e5565b602082019050919050565b5f6020820190508181035f830152612a4681612a0d565b9050919050565b7f53747564656e74206f7220726f6f6d20616c726561647920696e20636f6e74725f8201527f6163740000000000000000000000000000000000000000000000000000000000602082015250565b5f612aa7602383611f70565b9150612ab282612a4d565b604082019050919050565b5f6020820190508181035f830152612ad481612a9b565b9050919050565b7f496e636f6e73697374656e6379206265747765656e20726f6f6d206f776e65725f8201527f20616e642072656e746572000000000000000000000000000000000000000000602082015250565b5f612b35602b83611f70565b9150612b4082612adb565b604082019050919050565b5f6020820190508181035f830152612b6281612b29565b9050919050565b7f546869732072656e746572277320726f6f6d732061726520616c6c20616c72655f8201527f616479206f636375706965640000000000000000000000000000000000000000602082015250565b5f612bc3602c83611f70565b9150612bce82612b69565b604082019050919050565b5f6020820190508181035f830152612bf081612bb7565b9050919050565b5f612c0182612015565b9150612c0c83612015565b9250828203905081811115612c2457612c2361201e565b5b9291505056fea2646970667358221220a2d2ca4ca0fd6c6b446befd0ddda8e72d27db769d02540b15b64f0b18974825264736f6c63430008140033",
  "immutableReferences": {},
  "source": "// SPDX-License-Identifier: GPL - 3.0\r\npragma solidity >= 0.7.0;\r\n\r\n//import \"hardhat/console.sol\"; // CAPIRE COME IMPORTARE\r\n\r\ncontract Prova {\r\n\r\n    struct contract_instance {\r\n        uint contract_id;\r\n        uint room_id;\r\n        bool student_paid;\r\n        bool renter_paid;\r\n        uint amt_paid;\r\n        address payable student;\r\n        address payable renter;\r\n    }\r\n\r\n    struct room {\r\n        uint id;\r\n        address owner;\r\n        bool occupied;\r\n        uint deposit;\r\n    }\r\n\r\n    // the bool variable already_init is used to check if the couple (key, struct) has already been explicitely set (to )\r\n    struct user {\r\n        Role role;\r\n        uint[] room_record;\r\n        uint num_rooms;\r\n        bool already_init;\r\n    }\r\n\r\n    enum Role {\r\n        Renter,\r\n        Student\r\n    }\r\n\r\n    address payable contract_address = payable(address(this));\r\n    mapping(uint => contract_instance) contract_record;         // associa a ogni id la rispettiva struct di contratto\r\n    mapping(address => user) user_info;                        // associa a ogni indirizzo il suo ruolo (student: 0, renter: 1)\r\n    mapping(address => uint[]) renters_rooms;                  // associa a ogni renter un array che contiene l'id (o NFT, chiss) delle sue stanze\r\n    mapping(uint => room) rooms_record;    \r\n    uint conversion_rate = 586099570929370;                     // DA CHIEDERE ALL'ESTERNO?\r\n    uint num_contracts;                                         // var globale che incremento a ogni nuovo contratto e la uso come id\r\n\r\n    constructor() {\r\n        //contract_record = new mapping(uint => contract_instance); // non chiaro come si inizializza\r\n        num_contracts = 0;\r\n    }\r\n\r\n    function create_user(bool role_id) public {\r\n        // Doesn't allow double registrations\r\n        require(!user_info[msg.sender].already_init, \"User already registered\");\r\n        uint256[] memory a = new uint256[](0);\r\n        // false --> student, true --> renter\r\n        if (role_id) {\r\n            user_info[msg.sender] = user({role: Role.Renter, room_record: a, num_rooms: 0, already_init: true});\r\n        }\r\n        else {\r\n            user_info[msg.sender] = user({role: Role.Student, room_record: a, num_rooms: 0, already_init: true});\r\n        }\r\n        \r\n    }\r\n\r\n    function register_rooms(uint[] memory rooms, uint[] memory deposits) public {\r\n        // controlliamo che il chiamante sia un renter\r\n        require(user_info[msg.sender].role == Role.Renter, \"You are not a renter therefore you're not allowed to register rooms\");\r\n        require(rooms.length == deposits.length, \"Inconsistent information provided.\");\r\n        uint l = rooms.length;\r\n        user_info[msg.sender].num_rooms = l; \r\n        // TODO: VERIFICARE CHE IL RENTER SIA EFFETTIVAMENTE IL PROPRIETARIO DELLE STANZE (sia fa una zkp nelle nft? chi lo sa)\r\n\r\n        for (uint i = 0; i < l; i++) {\r\n            room memory new_room = room({id: rooms[i], owner: msg.sender, occupied: false, deposit: deposits[i]});\r\n            renters_rooms[msg.sender][i] = rooms[i];\r\n            rooms_record[new_room.id] = new_room;\r\n        }\r\n        \r\n    }   \r\n\r\n    // If the student has his heart already set on a specific room \r\n    function inizialize(address payable renter, uint room_id) public {\r\n        require(check_user_already_registered(msg.sender), \"You are not an authorized user\");\r\n        require(check_user_already_registered(renter), \"Renter is not an authorized user\");\r\n\r\n        address payable student = payable(msg.sender);\r\n        \r\n        // check che lo studente non sia gi in una \"istanza\" di contratto o che la stanza non sia gi occupata\r\n        require(check_if_already_in_contract(student, room_id) == false, \"Student or room already in contract\"); // controllare che l'inizializzazione venga interrotta e venga emesso il messaggio di errore\r\n        \r\n        // check that renter is the room owner\r\n        require(rooms_record[room_id].owner == renter, \"Inconsistency between room owner and renter\");\r\n\r\n        // se n lo student n la stanza sono gi in un contratto, possiamo procedere alla creazione della struct che rappresenta l'istanza del contratto\r\n        uint new_id = num_contracts;\r\n        num_contracts++;\r\n        rooms_record[room_id].occupied = true;\r\n        contract_instance memory instance = contract_instance({contract_id: new_id, room_id: room_id, student_paid: false, renter_paid: false, amt_paid: 0, student: student, renter: renter});\r\n        contract_record[new_id] = instance;\r\n        user_info[student].room_record.push(new_id);\r\n        user_info[renter].room_record.push(new_id);\r\n    }\r\n\r\n    // if the student doesn't care about which room he gets assigned\r\n    function inizialize(address payable renter) public {\r\n        require(check_user_already_registered(msg.sender), \"You are not an authorized user\");\r\n        require(check_user_already_registered(renter), \"Renter is not an authorized user\");\r\n        address payable student = payable(msg.sender);\r\n        \r\n        uint room_id;\r\n        bool room_found = false;\r\n\r\n        // Checks if the owner has any rooms available\r\n        for (uint i = 0; i < user_info[renter].num_rooms; i++) {\r\n            if (!rooms_record[renters_rooms[renter][i]].occupied) {\r\n                room_found = true;\r\n                room_id = rooms_record[renters_rooms[renter][i]].id;\r\n                break;\r\n            }\r\n        }\r\n        \r\n        require(room_found, \"This renter's rooms are all already occupied\"); \r\n\r\n        uint new_id = num_contracts;\r\n        num_contracts++;\r\n        rooms_record[room_id].occupied = true;\r\n        contract_instance memory instance = contract_instance({contract_id: new_id, room_id: room_id, student_paid: false, renter_paid: false, amt_paid: 0, student: student, renter: renter});\r\n        contract_record[new_id] = instance;\r\n        user_info[student].room_record.push(new_id);\r\n        user_info[renter].room_record.push(new_id);\r\n    \r\n    }\r\n\r\n    // customizziamo receive \r\n    receive() external payable {\r\n        Role role = user_info[msg.sender].role;\r\n        require(role == Role.Student, \"Unauthorized payment\");\r\n        uint contract_id = user_info[msg.sender].room_record[0];\r\n        contract_instance memory instance = contract_record[contract_id];\r\n        uint deposit = rooms_record[instance.room_id].deposit;\r\n        uint paid_amount = msg.value;\r\n        require(paid_amount == conversion_rate * deposit, \"Tu vuole inculale meeee\");\r\n        \r\n        instance.amt_paid = paid_amount;\r\n        instance.student_paid = true;\r\n\r\n    }\r\n\r\n\r\n    function withdraw_from_contract(uint contract_id) public {\r\n        // IDEA: lo studente non pu ritirarsi prima di aver pagato la caparra, oppure pu ritirarsi gratuitamente nel lasso di tempo \r\n        // che ha per pagare la caparra\r\n        address receder = msg.sender;\r\n        address other;\r\n        contract_instance memory instance = contract_record[contract_id];\r\n        if (user_info[msg.sender].role == Role.Student) {\r\n            other = contract_record[contract_id].renter;\r\n        }\r\n        else {\r\n            other = contract_record[contract_id].student;\r\n        }\r\n        uint room_id = instance.room_id;\r\n\r\n        delete_contract_instance(receder, other, contract_id, room_id);\r\n        \r\n        payable(other).transfer(instance.amt_paid);\r\n    }\r\n\r\n    function delete_contract_instance(address a1, address a2, uint contract_id, uint room_id) private {\r\n        \r\n        // delete the contract instance\r\n        delete(contract_record[contract_id]);\r\n\r\n        // mark the room as not occupied\r\n        rooms_record[room_id].occupied = false;\r\n        \r\n        // modify the list of contract instances the addresses are a part of\r\n        uint[] memory a1_record = user_info[a1].room_record;\r\n        uint[] memory a1_new_record = new uint[](a1_record.length - 1); // la lunghezza  uno in meno perch tolgo l'id di contratto dall'array\r\n        uint[] memory a2_record = user_info[a2].room_record;\r\n        uint[] memory a2_new_record = new uint[](a2_record.length - 1);\r\n\r\n        \r\n        for(uint i = 0; i < a1_record.length; i++) {\r\n            if (a1_record[i] != contract_id) {\r\n                a1_new_record[i] = a1_record[i];\r\n            }  \r\n        }\r\n        user_info[a1].room_record = a1_new_record; \r\n\r\n        for(uint i = 0; i < a2_record.length; i++) {\r\n            if (a2_record[i] != contract_id) {\r\n                a2_new_record[i] = a2_record[i];\r\n            }  \r\n        }\r\n        user_info[a2].room_record = a2_new_record;\r\n    }\r\n\r\n    function end_contract_successfully(uint contract_id) public returns (bool) {\r\n        //TODO\r\n    }\r\n\r\n\r\n\r\n    function get_user_info(address add) public view returns (user memory) {\r\n        return user_info[add];\r\n    }\r\n\r\n    function get_contract_info(uint256 contract_id) public view returns (contract_instance memory) {\r\n        return contract_record[contract_id];\r\n    }\r\n\r\n\r\n    function get_room_info(uint room_id) public view returns (room memory) {\r\n        return rooms_record[room_id];\r\n    }\r\n\r\n\r\n    function check_if_already_in_contract(address student, uint room_id) private view returns (bool) {\r\n        // controlla se lo studente o la stanza (disgiunzione inclusiva) sono gi in un contratto\r\n        \r\n        uint[] memory student_array = user_info[student].room_record;\r\n\r\n        if (student_array.length > 0 || rooms_record[room_id].occupied == true) {\r\n            return true;\r\n        }\r\n        return false;\r\n\r\n    }\r\n\r\n    function check_user_already_registered(address add) private view returns (bool) {\r\n        return user_info[add].already_init;\r\n    }  \r\n}\r\n\r\n",
  "sourcePath": "C:\\Users\\annag\\OneDrive\\Desktop\\Varie\\Unitn\\Blockchain\\HouseLocker\\smart_contracts\\Affitto\\contracts\\Affitto.sol",
  "compiler": {
    "name": "solc",
    "version": "0.8.20+commit.a1b79de6.Emscripten.clang"
  },
  "schemaVersion": "3.4.14",
  "updatedAt": "2023-06-21T12:58:26.492Z",
  "devdoc": {
    "kind": "dev",
    "methods": {},
    "version": 1
  },
  "userdoc": {
    "kind": "user",
    "methods": {},
    "version": 1
  }
}