{
  "contractName": "Prova",
  "abi": [
    {
      "inputs": [],
      "stateMutability": "nonpayable",
      "type": "constructor"
    },
    {
      "anonymous": false,
      "inputs": [
        {
          "indexed": false,
          "internalType": "string",
          "name": "func",
          "type": "string"
        },
        {
          "indexed": false,
          "internalType": "address",
          "name": "sender",
          "type": "address"
        },
        {
          "indexed": false,
          "internalType": "uint256",
          "name": "value",
          "type": "uint256"
        },
        {
          "indexed": false,
          "internalType": "bytes",
          "name": "data",
          "type": "bytes"
        }
      ],
      "name": "Log",
      "type": "event"
    },
    {
      "stateMutability": "payable",
      "type": "fallback"
    },
    {
      "stateMutability": "payable",
      "type": "receive"
    },
    {
      "inputs": [
        {
          "internalType": "bool",
          "name": "role_id",
          "type": "bool"
        },
        {
          "internalType": "uint256[]",
          "name": "rooms",
          "type": "uint256[]"
        },
        {
          "internalType": "uint256[]",
          "name": "deposits",
          "type": "uint256[]"
        }
      ],
      "name": "register_user",
      "outputs": [],
      "stateMutability": "nonpayable",
      "type": "function"
    },
    {
      "inputs": [
        {
          "internalType": "uint256[]",
          "name": "rooms",
          "type": "uint256[]"
        },
        {
          "internalType": "uint256[]",
          "name": "deposits",
          "type": "uint256[]"
        }
      ],
      "name": "register_rooms",
      "outputs": [],
      "stateMutability": "payable",
      "type": "function"
    },
    {
      "inputs": [
        {
          "internalType": "address payable",
          "name": "renter",
          "type": "address"
        },
        {
          "internalType": "uint256",
          "name": "room_id",
          "type": "uint256"
        }
      ],
      "name": "inizialize",
      "outputs": [],
      "stateMutability": "nonpayable",
      "type": "function"
    },
    {
      "inputs": [
        {
          "internalType": "address payable",
          "name": "renter",
          "type": "address"
        }
      ],
      "name": "inizialize",
      "outputs": [],
      "stateMutability": "nonpayable",
      "type": "function"
    },
    {
      "inputs": [],
      "name": "student_pay_deposit",
      "outputs": [],
      "stateMutability": "payable",
      "type": "function"
    },
    {
      "inputs": [
        {
          "internalType": "uint256",
          "name": "contract_id",
          "type": "uint256"
        }
      ],
      "name": "renter_pay_deposit",
      "outputs": [],
      "stateMutability": "payable",
      "type": "function"
    },
    {
      "inputs": [
        {
          "internalType": "uint256",
          "name": "contract_id",
          "type": "uint256"
        }
      ],
      "name": "withdraw_from_contract",
      "outputs": [],
      "stateMutability": "nonpayable",
      "type": "function"
    },
    {
      "inputs": [
        {
          "internalType": "uint256",
          "name": "contract_id",
          "type": "uint256"
        }
      ],
      "name": "end_contract_successfully",
      "outputs": [
        {
          "internalType": "bool",
          "name": "",
          "type": "bool"
        }
      ],
      "stateMutability": "nonpayable",
      "type": "function"
    },
    {
      "inputs": [
        {
          "internalType": "address",
          "name": "add",
          "type": "address"
        }
      ],
      "name": "get_user_info",
      "outputs": [
        {
          "components": [
            {
              "internalType": "enum Prova.Role",
              "name": "role",
              "type": "uint8"
            },
            {
              "internalType": "uint256[]",
              "name": "contract_instance_record",
              "type": "uint256[]"
            },
            {
              "internalType": "uint256",
              "name": "num_rooms",
              "type": "uint256"
            },
            {
              "internalType": "bool",
              "name": "already_init",
              "type": "bool"
            }
          ],
          "internalType": "struct Prova.user",
          "name": "",
          "type": "tuple"
        }
      ],
      "stateMutability": "view",
      "type": "function"
    },
    {
      "inputs": [
        {
          "internalType": "uint256",
          "name": "contract_id",
          "type": "uint256"
        }
      ],
      "name": "get_contract_info",
      "outputs": [
        {
          "components": [
            {
              "internalType": "uint256",
              "name": "contract_id",
              "type": "uint256"
            },
            {
              "internalType": "uint256",
              "name": "room_id",
              "type": "uint256"
            },
            {
              "internalType": "bool",
              "name": "student_paid",
              "type": "bool"
            },
            {
              "internalType": "bool",
              "name": "renter_paid",
              "type": "bool"
            },
            {
              "internalType": "uint256",
              "name": "amt_paid_student",
              "type": "uint256"
            },
            {
              "internalType": "uint256",
              "name": "amt_paid_renter",
              "type": "uint256"
            },
            {
              "internalType": "bool",
              "name": "concluded_student",
              "type": "bool"
            },
            {
              "internalType": "bool",
              "name": "concluded_renter",
              "type": "bool"
            },
            {
              "internalType": "address payable",
              "name": "student",
              "type": "address"
            },
            {
              "internalType": "address payable",
              "name": "renter",
              "type": "address"
            }
          ],
          "internalType": "struct Prova.contract_instance",
          "name": "",
          "type": "tuple"
        }
      ],
      "stateMutability": "view",
      "type": "function"
    },
    {
      "inputs": [
        {
          "internalType": "uint256",
          "name": "room_id",
          "type": "uint256"
        }
      ],
      "name": "get_room_info",
      "outputs": [
        {
          "components": [
            {
              "internalType": "uint256",
              "name": "id",
              "type": "uint256"
            },
            {
              "internalType": "address",
              "name": "owner",
              "type": "address"
            },
            {
              "internalType": "bool",
              "name": "occupied",
              "type": "bool"
            },
            {
              "internalType": "uint256",
              "name": "deposit",
              "type": "uint256"
            }
          ],
          "internalType": "struct Prova.room",
          "name": "",
          "type": "tuple"
        }
      ],
      "stateMutability": "view",
      "type": "function"
    },
    {
      "inputs": [
        {
          "internalType": "address",
          "name": "addr",
          "type": "address"
        },
        {
          "internalType": "uint256",
          "name": "contract_id",
          "type": "uint256"
        }
      ],
      "name": "check_if_already_paid",
      "outputs": [
        {
          "internalType": "bool",
          "name": "",
          "type": "bool"
        }
      ],
      "stateMutability": "view",
      "type": "function"
    }
  ],
  "bytecode": "0x6080604052305f806101000a81548173ffffffffffffffffffffffffffffffffffffffff021916908373ffffffffffffffffffffffffffffffffffffffff1602179055506602150df0ba6eda600555348015610059575f80fd5b506001600681905550613a4f8061006f5f395ff3fe6080604052600436106100aa575f3560e01c8063a1370f1b11610063578063a1370f1b14610251578063b2f019011461028d578063d8f229ab14610297578063da9ae234146102bf578063db3189b7146102e7578063f90336281461030f576100ea565b80631db8d6cd1461012957806322aece9c146101455780633acbba6e1461016157806365cdf7c31461019d578063774deb42146101d95780638c4db02514610215576100ea565b366100ea577ff7f75251dee7d7fc22deac3247729ebe7c86541f35930bf10c2a4207479a3b6c33346040516100e0929190612b4c565b60405180910390a1005b7ff7f75251dee7d7fc22deac3247729ebe7c86541f35930bf10c2a4207479a3b6c33345f3660405161011f9493929190612c2d565b60405180910390a1005b610143600480360381019061013e9190612cb9565b610337565b005b61015f600480360381019061015a9190612e24565b61064c565b005b34801561016c575f80fd5b5061018760048036038101906101829190612ec4565b61092a565b6040516101949190612f1c565b60405180910390f35b3480156101a8575f80fd5b506101c360048036038101906101be9190612cb9565b610c05565b6040516101d09190612f1c565b60405180910390f35b3480156101e4575f80fd5b506101ff60048036038101906101fa9190612cb9565b610ee7565b60405161020c919061303d565b60405180910390f35b348015610220575f80fd5b5061023b60048036038101906102369190613057565b61104f565b60405161024891906131fd565b60405180910390f35b34801561025c575f80fd5b5061027760048036038101906102729190612cb9565b611159565b604051610284919061327f565b60405180910390f35b610295611207565b005b3480156102a2575f80fd5b506102bd60048036038101906102b891906132c2565b6114d0565b005b3480156102ca575f80fd5b506102e560048036038101906102e09190613300565b611932565b005b3480156102f2575f80fd5b5061030d60048036038101906103089190612cb9565b611e3b565b005b34801561031a575f80fd5b5061033560048036038101906103309190613355565b6120f7565b005b5f60015f8381526020019081526020015f20604051806101400160405290815f820154815260200160018201548152602001600282015f9054906101000a900460ff161515151581526020016002820160019054906101000a900460ff161515151581526020016003820154815260200160048201548152602001600582015f9054906101000a900460ff161515151581526020016005820160019054906101000a900460ff161515151581526020016005820160029054906101000a900473ffffffffffffffffffffffffffffffffffffffff1673ffffffffffffffffffffffffffffffffffffffff1673ffffffffffffffffffffffffffffffffffffffff168152602001600682015f9054906101000a900473ffffffffffffffffffffffffffffffffffffffff1673ffffffffffffffffffffffffffffffffffffffff1673ffffffffffffffffffffffffffffffffffffffff168152505090505f60025f3373ffffffffffffffffffffffffffffffffffffffff1673ffffffffffffffffffffffffffffffffffffffff1681526020019081526020015f205f015f9054906101000a900460ff1690505f60018111156104f5576104f4613082565b5b81600181111561050857610507613082565b5b14610548576040517f08c379a000000000000000000000000000000000000000000000000000000000815260040161053f90613427565b60405180910390fd5b81610120015173ffffffffffffffffffffffffffffffffffffffff163373ffffffffffffffffffffffffffffffffffffffff16146105bb576040517f08c379a00000000000000000000000000000000000000000000000000000000081526004016105b290613427565b60405180910390fd5b5f60045f846020015181526020019081526020015f206002015490505f349050816005546105e99190613472565b811461062a576040517f08c379a0000000000000000000000000000000000000000000000000000000008152600401610621906134fd565b60405180910390fd5b808460a001818152505060018460600190151590811515815250505050505050565b5f600181111561065f5761065e613082565b5b60025f3373ffffffffffffffffffffffffffffffffffffffff1673ffffffffffffffffffffffffffffffffffffffff1681526020019081526020015f205f015f9054906101000a900460ff1660018111156106bd576106bc613082565b5b146106fd576040517f08c379a00000000000000000000000000000000000000000000000000000000081526004016106f4906135b1565b60405180910390fd5b8051825114610741576040517f08c379a00000000000000000000000000000000000000000000000000000000081526004016107389061363f565b60405180910390fd5b5f825190508060025f3373ffffffffffffffffffffffffffffffffffffffff1673ffffffffffffffffffffffffffffffffffffffff1681526020019081526020015f20600201819055505f5b81811015610924575f60405180608001604052808684815181106107b4576107b361365d565b5b602002602001015181526020013373ffffffffffffffffffffffffffffffffffffffff1681526020015f151581526020018584815181106107f8576107f761365d565b5b6020026020010151815250905060035f3373ffffffffffffffffffffffffffffffffffffffff1673ffffffffffffffffffffffffffffffffffffffff1681526020019081526020015f208583815181106108555761085461365d565b5b6020026020010151908060018154018082558091505060019003905f5260205f20015f90919091909150558060045f835f015181526020019081526020015f205f820151815f01556020820151816001015f6101000a81548173ffffffffffffffffffffffffffffffffffffffff021916908373ffffffffffffffffffffffffffffffffffffffff16021790555060408201518160010160146101000a81548160ff0219169083151502179055506060820151816002015590505050808061091c9061368a565b91505061078d565b50505050565b5f8060025f8573ffffffffffffffffffffffffffffffffffffffff1673ffffffffffffffffffffffffffffffffffffffff1681526020019081526020015f205f015f9054906101000a900460ff1690505f60015f8581526020019081526020015f20604051806101400160405290815f820154815260200160018201548152602001600282015f9054906101000a900460ff161515151581526020016002820160019054906101000a900460ff161515151581526020016003820154815260200160048201548152602001600582015f9054906101000a900460ff161515151581526020016005820160019054906101000a900460ff161515151581526020016005820160029054906101000a900473ffffffffffffffffffffffffffffffffffffffff1673ffffffffffffffffffffffffffffffffffffffff1673ffffffffffffffffffffffffffffffffffffffff168152602001600682015f9054906101000a900473ffffffffffffffffffffffffffffffffffffffff1673ffffffffffffffffffffffffffffffffffffffff1673ffffffffffffffffffffffffffffffffffffffff168152505090505f6001811115610ae957610ae8613082565b5b826001811115610afc57610afb613082565b5b03610b825780610120015173ffffffffffffffffffffffffffffffffffffffff168573ffffffffffffffffffffffffffffffffffffffff1614610b74576040517f08c379a0000000000000000000000000000000000000000000000000000000008152600401610b6b90613427565b60405180910390fd5b806060015192505050610bff565b80610100015173ffffffffffffffffffffffffffffffffffffffff168573ffffffffffffffffffffffffffffffffffffffff1614610bf5576040517f08c379a0000000000000000000000000000000000000000000000000000000008152600401610bec90613427565b60405180910390fd5b8060400151925050505b92915050565b5f8060015f8481526020019081526020015f20604051806101400160405290815f820154815260200160018201548152602001600282015f9054906101000a900460ff161515151581526020016002820160019054906101000a900460ff161515151581526020016003820154815260200160048201548152602001600582015f9054906101000a900460ff161515151581526020016005820160019054906101000a900460ff161515151581526020016005820160029054906101000a900473ffffffffffffffffffffffffffffffffffffffff1673ffffffffffffffffffffffffffffffffffffffff1673ffffffffffffffffffffffffffffffffffffffff168152602001600682015f9054906101000a900473ffffffffffffffffffffffffffffffffffffffff1673ffffffffffffffffffffffffffffffffffffffff1673ffffffffffffffffffffffffffffffffffffffff168152505090505f80600180811115610d7757610d76613082565b5b60025f3373ffffffffffffffffffffffffffffffffffffffff1673ffffffffffffffffffffffffffffffffffffffff1681526020019081526020015f205f015f9054906101000a900460ff166001811115610dd557610dd4613082565b5b03610dfb5733915060018360c00190151590811515815250508261012001519050610e18565b33905060018360e001901515908115158152505082610100015191505b8260e001518015610e2a57508260c001515b15610edb57610e3f828287866020015161236a565b8173ffffffffffffffffffffffffffffffffffffffff166108fc846080015190811502906040515f60405180830381858888f19350505050158015610e86573d5f803e3d5ffd5b508073ffffffffffffffffffffffffffffffffffffffff166108fc8460a0015190811502906040515f60405180830381858888f19350505050158015610ece573d5f803e3d5ffd5b5060019350505050610ee2565b5f93505050505b919050565b610eef612910565b60015f8381526020019081526020015f20604051806101400160405290815f820154815260200160018201548152602001600282015f9054906101000a900460ff161515151581526020016002820160019054906101000a900460ff161515151581526020016003820154815260200160048201548152602001600582015f9054906101000a900460ff161515151581526020016005820160019054906101000a900460ff161515151581526020016005820160029054906101000a900473ffffffffffffffffffffffffffffffffffffffff1673ffffffffffffffffffffffffffffffffffffffff1673ffffffffffffffffffffffffffffffffffffffff168152602001600682015f9054906101000a900473ffffffffffffffffffffffffffffffffffffffff1673ffffffffffffffffffffffffffffffffffffffff1673ffffffffffffffffffffffffffffffffffffffff16815250509050919050565b61105761298d565b60025f8373ffffffffffffffffffffffffffffffffffffffff1673ffffffffffffffffffffffffffffffffffffffff1681526020019081526020015f206040518060800160405290815f82015f9054906101000a900460ff1660018111156110c2576110c1613082565b5b60018111156110d4576110d3613082565b5b81526020016001820180548060200260200160405190810160405280929190818152602001828054801561112557602002820191905f5260205f20905b815481526020019060010190808311611111575b5050505050815260200160028201548152602001600382015f9054906101000a900460ff1615151515815250509050919050565b6111616129c6565b60045f8381526020019081526020015f206040518060800160405290815f8201548152602001600182015f9054906101000a900473ffffffffffffffffffffffffffffffffffffffff1673ffffffffffffffffffffffffffffffffffffffff1673ffffffffffffffffffffffffffffffffffffffff1681526020016001820160149054906101000a900460ff161515151581526020016002820154815250509050919050565b5f60025f3373ffffffffffffffffffffffffffffffffffffffff1673ffffffffffffffffffffffffffffffffffffffff1681526020019081526020015f205f015f9054906101000a900460ff16905060018081111561126957611268613082565b5b81600181111561127c5761127b613082565b5b14611285575f80fd5b5f60025f3373ffffffffffffffffffffffffffffffffffffffff1673ffffffffffffffffffffffffffffffffffffffff1681526020019081526020015f206001015f815481106112d8576112d761365d565b5b905f5260205f20015490505f60015f8381526020019081526020015f20604051806101400160405290815f820154815260200160018201548152602001600282015f9054906101000a900460ff161515151581526020016002820160019054906101000a900460ff161515151581526020016003820154815260200160048201548152602001600582015f9054906101000a900460ff161515151581526020016005820160019054906101000a900460ff161515151581526020016005820160029054906101000a900473ffffffffffffffffffffffffffffffffffffffff1673ffffffffffffffffffffffffffffffffffffffff1673ffffffffffffffffffffffffffffffffffffffff168152602001600682015f9054906101000a900473ffffffffffffffffffffffffffffffffffffffff1673ffffffffffffffffffffffffffffffffffffffff1673ffffffffffffffffffffffffffffffffffffffff168152505090505f60045f836020015181526020019081526020015f206002015490505f3490508160055461146d9190613472565b81146114ae576040517f08c379a00000000000000000000000000000000000000000000000000000000081526004016114a5906134fd565b60405180910390fd5b8083608001818152505060018360400190151590811515815250505050505050565b6114d9336127dc565b611518576040517f08c379a000000000000000000000000000000000000000000000000000000000815260040161150f9061371b565b60405180910390fd5b611521826127dc565b611560576040517f08c379a000000000000000000000000000000000000000000000000000000000815260040161155790613783565b60405180910390fd5b5f3390505f15156115718284612831565b1515146115b3576040517f08c379a00000000000000000000000000000000000000000000000000000000081526004016115aa90613811565b60405180910390fd5b8273ffffffffffffffffffffffffffffffffffffffff1660045f8481526020019081526020015f206001015f9054906101000a900473ffffffffffffffffffffffffffffffffffffffff1673ffffffffffffffffffffffffffffffffffffffff1614611654576040517f08c379a000000000000000000000000000000000000000000000000000000000815260040161164b9061389f565b60405180910390fd5b5f600654905060065f81548092919061166c9061368a565b9190505550600160045f8581526020019081526020015f2060010160146101000a81548160ff0219169083151502179055505f6040518061014001604052808381526020018581526020015f151581526020015f151581526020015f81526020015f81526020015f151581526020015f151581526020018473ffffffffffffffffffffffffffffffffffffffff1681526020018673ffffffffffffffffffffffffffffffffffffffff1681525090508060015f8481526020019081526020015f205f820151815f0155602082015181600101556040820151816002015f6101000a81548160ff02191690831515021790555060608201518160020160016101000a81548160ff0219169083151502179055506080820151816003015560a0820151816004015560c0820151816005015f6101000a81548160ff02191690831515021790555060e08201518160050160016101000a81548160ff0219169083151502179055506101008201518160050160026101000a81548173ffffffffffffffffffffffffffffffffffffffff021916908373ffffffffffffffffffffffffffffffffffffffff160217905550610120820151816006015f6101000a81548173ffffffffffffffffffffffffffffffffffffffff021916908373ffffffffffffffffffffffffffffffffffffffff16021790555090505060025f8473ffffffffffffffffffffffffffffffffffffffff1673ffffffffffffffffffffffffffffffffffffffff1681526020019081526020015f2060010182908060018154018082558091505060019003905f5260205f20015f909190919091505560025f8673ffffffffffffffffffffffffffffffffffffffff1673ffffffffffffffffffffffffffffffffffffffff1681526020019081526020015f2060010182908060018154018082558091505060019003905f5260205f20015f90919091909150555050505050565b61193b336127dc565b61197a576040517f08c379a00000000000000000000000000000000000000000000000000000000081526004016119719061371b565b60405180910390fd5b611983816127dc565b6119c2576040517f08c379a00000000000000000000000000000000000000000000000000000000081526004016119b990613783565b60405180910390fd5b5f3390505f805f90505f5b60025f8673ffffffffffffffffffffffffffffffffffffffff1673ffffffffffffffffffffffffffffffffffffffff1681526020019081526020015f2060020154811015611b1b5760045f60035f8873ffffffffffffffffffffffffffffffffffffffff1673ffffffffffffffffffffffffffffffffffffffff1681526020019081526020015f208381548110611a6757611a6661365d565b5b905f5260205f20015481526020019081526020015f2060010160149054906101000a900460ff16611b08576001915060045f60035f8873ffffffffffffffffffffffffffffffffffffffff1673ffffffffffffffffffffffffffffffffffffffff1681526020019081526020015f208381548110611ae857611ae761365d565b5b905f5260205f20015481526020019081526020015f205f01549250611b1b565b8080611b139061368a565b9150506119cd565b5080611b5c576040517f08c379a0000000000000000000000000000000000000000000000000000000008152600401611b539061392d565b60405180910390fd5b5f600654905060065f815480929190611b749061368a565b9190505550600160045f8581526020019081526020015f2060010160146101000a81548160ff0219169083151502179055505f6040518061014001604052808381526020018581526020015f151581526020015f151581526020015f81526020015f81526020015f151581526020015f151581526020018673ffffffffffffffffffffffffffffffffffffffff1681526020018773ffffffffffffffffffffffffffffffffffffffff1681525090508060015f8481526020019081526020015f205f820151815f0155602082015181600101556040820151816002015f6101000a81548160ff02191690831515021790555060608201518160020160016101000a81548160ff0219169083151502179055506080820151816003015560a0820151816004015560c0820151816005015f6101000a81548160ff02191690831515021790555060e08201518160050160016101000a81548160ff0219169083151502179055506101008201518160050160026101000a81548173ffffffffffffffffffffffffffffffffffffffff021916908373ffffffffffffffffffffffffffffffffffffffff160217905550610120820151816006015f6101000a81548173ffffffffffffffffffffffffffffffffffffffff021916908373ffffffffffffffffffffffffffffffffffffffff16021790555090505060025f8673ffffffffffffffffffffffffffffffffffffffff1673ffffffffffffffffffffffffffffffffffffffff1681526020019081526020015f2060010182908060018154018082558091505060019003905f5260205f20015f909190919091505560025f8773ffffffffffffffffffffffffffffffffffffffff1673ffffffffffffffffffffffffffffffffffffffff1681526020019081526020015f2060010182908060018154018082558091505060019003905f5260205f20015f9091909190915055505050505050565b5f3390505f8060015f8581526020019081526020015f20604051806101400160405290815f820154815260200160018201548152602001600282015f9054906101000a900460ff161515151581526020016002820160019054906101000a900460ff161515151581526020016003820154815260200160048201548152602001600582015f9054906101000a900460ff161515151581526020016005820160019054906101000a900460ff161515151581526020016005820160029054906101000a900473ffffffffffffffffffffffffffffffffffffffff1673ffffffffffffffffffffffffffffffffffffffff1673ffffffffffffffffffffffffffffffffffffffff168152602001600682015f9054906101000a900473ffffffffffffffffffffffffffffffffffffffff1673ffffffffffffffffffffffffffffffffffffffff1673ffffffffffffffffffffffffffffffffffffffff16815250509050600180811115611faf57611fae613082565b5b60025f3373ffffffffffffffffffffffffffffffffffffffff1673ffffffffffffffffffffffffffffffffffffffff1681526020019081526020015f205f015f9054906101000a900460ff16600181111561200d5761200c613082565b5b0361204d5760015f8581526020019081526020015f206006015f9054906101000a900473ffffffffffffffffffffffffffffffffffffffff169150612085565b60015f8581526020019081526020015f2060050160029054906101000a900473ffffffffffffffffffffffffffffffffffffffff1691505b5f816020015190506120998484878461236a565b8273ffffffffffffffffffffffffffffffffffffffff166108fc8360a0015184608001516120c7919061394b565b90811502906040515f60405180830381858888f193505050501580156120ef573d5f803e3d5ffd5b505050505050565b60025f3373ffffffffffffffffffffffffffffffffffffffff1673ffffffffffffffffffffffffffffffffffffffff1681526020019081526020015f206003015f9054906101000a900460ff1615612184576040517f08c379a000000000000000000000000000000000000000000000000000000000815260040161217b906139c8565b60405180910390fd5b6060831561227a5760405180608001604052805f60018111156121aa576121a9613082565b5b81526020018281526020015f81526020016001151581525060025f3373ffffffffffffffffffffffffffffffffffffffff1673ffffffffffffffffffffffffffffffffffffffff1681526020019081526020015f205f820151815f015f6101000a81548160ff0219169083600181111561222757612226613082565b5b02179055506020820151816001019080519060200190612248929190612a02565b50604082015181600201556060820151816003015f6101000a81548160ff021916908315150217905550905050612364565b604051806080016040528060018081111561229857612297613082565b5b81526020018281526020015f81526020016001151581525060025f3373ffffffffffffffffffffffffffffffffffffffff1673ffffffffffffffffffffffffffffffffffffffff1681526020019081526020015f205f820151815f015f6101000a81548160ff0219169083600181111561231557612314613082565b5b02179055506020820151816001019080519060200190612336929190612a02565b50604082015181600201556060820151816003015f6101000a81548160ff0219169083151502179055509050505b50505050565b60015f8381526020019081526020015f205f8082015f9055600182015f9055600282015f6101000a81549060ff02191690556002820160016101000a81549060ff0219169055600382015f9055600482015f9055600582015f6101000a81549060ff02191690556005820160016101000a81549060ff02191690556005820160026101000a81549073ffffffffffffffffffffffffffffffffffffffff0219169055600682015f6101000a81549073ffffffffffffffffffffffffffffffffffffffff021916905550505f60045f8381526020019081526020015f2060010160146101000a81548160ff0219169083151502179055505f60025f8673ffffffffffffffffffffffffffffffffffffffff1673ffffffffffffffffffffffffffffffffffffffff1681526020019081526020015f206001018054806020026020016040519081016040528092919081815260200182805480156124e957602002820191905f5260205f20905b8154815260200190600101908083116124d5575b505050505090505f600182516124ff91906139e6565b67ffffffffffffffff81111561251857612517612ce8565b5b6040519080825280602002602001820160405280156125465781602001602082028036833780820191505090505b5090505f60025f8773ffffffffffffffffffffffffffffffffffffffff1673ffffffffffffffffffffffffffffffffffffffff1681526020019081526020015f206001018054806020026020016040519081016040528092919081815260200182805480156125d257602002820191905f5260205f20905b8154815260200190600101908083116125be575b505050505090505f600182516125e891906139e6565b67ffffffffffffffff81111561260157612600612ce8565b5b60405190808252806020026020018201604052801561262f5781602001602082028036833780820191505090505b5090505f5b84518110156126ac57868582815181106126515761265061365d565b5b602002602001015114612699578481815181106126715761267061365d565b5b602002602001015184828151811061268c5761268b61365d565b5b6020026020010181815250505b80806126a49061368a565b915050612634565b508260025f8a73ffffffffffffffffffffffffffffffffffffffff1673ffffffffffffffffffffffffffffffffffffffff1681526020019081526020015f206001019080519060200190612701929190612a02565b505f5b825181101561277c57868382815181106127215761272061365d565b5b602002602001015114612769578281815181106127415761274061365d565b5b602002602001015182828151811061275c5761275b61365d565b5b6020026020010181815250505b80806127749061368a565b915050612704565b508060025f8973ffffffffffffffffffffffffffffffffffffffff1673ffffffffffffffffffffffffffffffffffffffff1681526020019081526020015f2060010190805190602001906127d1929190612a02565b505050505050505050565b5f60025f8373ffffffffffffffffffffffffffffffffffffffff1673ffffffffffffffffffffffffffffffffffffffff1681526020019081526020015f206003015f9054906101000a900460ff169050919050565b5f8060025f8573ffffffffffffffffffffffffffffffffffffffff1673ffffffffffffffffffffffffffffffffffffffff1681526020019081526020015f206001018054806020026020016040519081016040528092919081815260200182805480156128bb57602002820191905f5260205f20905b8154815260200190600101908083116128a7575b505050505090505f815111806128f657506001151560045f8581526020019081526020015f2060010160149054906101000a900460ff161515145b1561290557600191505061290a565b5f9150505b92915050565b6040518061014001604052805f81526020015f81526020015f151581526020015f151581526020015f81526020015f81526020015f151581526020015f151581526020015f73ffffffffffffffffffffffffffffffffffffffff1681526020015f73ffffffffffffffffffffffffffffffffffffffff1681525090565b60405180608001604052805f60018111156129ab576129aa613082565b5b8152602001606081526020015f81526020015f151581525090565b60405180608001604052805f81526020015f73ffffffffffffffffffffffffffffffffffffffff1681526020015f151581526020015f81525090565b828054828255905f5260205f20908101928215612a3c579160200282015b82811115612a3b578251825591602001919060010190612a20565b5b509050612a499190612a4d565b5090565b5b80821115612a64575f815f905550600101612a4e565b5090565b5f82825260208201905092915050565b7f66616c6c000000000000000000000000000000000000000000000000000000005f82015250565b5f612aac600483612a68565b9150612ab782612a78565b602082019050919050565b5f73ffffffffffffffffffffffffffffffffffffffff82169050919050565b5f612aeb82612ac2565b9050919050565b612afb81612ae1565b82525050565b5f819050919050565b612b1381612b01565b82525050565b5f82825260208201905092915050565b50565b5f612b375f83612b19565b9150612b4282612b29565b5f82019050919050565b5f6080820190508181035f830152612b6381612aa0565b9050612b726020830185612af2565b612b7f6040830184612b0a565b8181036060830152612b9081612b2c565b90509392505050565b7f66616c6c6261636b0000000000000000000000000000000000000000000000005f82015250565b5f612bcd600883612a68565b9150612bd882612b99565b602082019050919050565b828183375f83830152505050565b5f601f19601f8301169050919050565b5f612c0c8385612b19565b9350612c19838584612be3565b612c2283612bf1565b840190509392505050565b5f6080820190508181035f830152612c4481612bc1565b9050612c536020830187612af2565b612c606040830186612b0a565b8181036060830152612c73818486612c01565b905095945050505050565b5f604051905090565b5f80fd5b5f80fd5b612c9881612b01565b8114612ca2575f80fd5b50565b5f81359050612cb381612c8f565b92915050565b5f60208284031215612cce57612ccd612c87565b5b5f612cdb84828501612ca5565b91505092915050565b5f80fd5b7f4e487b71000000000000000000000000000000000000000000000000000000005f52604160045260245ffd5b612d1e82612bf1565b810181811067ffffffffffffffff82111715612d3d57612d3c612ce8565b5b80604052505050565b5f612d4f612c7e565b9050612d5b8282612d15565b919050565b5f67ffffffffffffffff821115612d7a57612d79612ce8565b5b602082029050602081019050919050565b5f80fd5b5f612da1612d9c84612d60565b612d46565b90508083825260208201905060208402830185811115612dc457612dc3612d8b565b5b835b81811015612ded5780612dd98882612ca5565b845260208401935050602081019050612dc6565b5050509392505050565b5f82601f830112612e0b57612e0a612ce4565b5b8135612e1b848260208601612d8f565b91505092915050565b5f8060408385031215612e3a57612e39612c87565b5b5f83013567ffffffffffffffff811115612e5757612e56612c8b565b5b612e6385828601612df7565b925050602083013567ffffffffffffffff811115612e8457612e83612c8b565b5b612e9085828601612df7565b9150509250929050565b612ea381612ae1565b8114612ead575f80fd5b50565b5f81359050612ebe81612e9a565b92915050565b5f8060408385031215612eda57612ed9612c87565b5b5f612ee785828601612eb0565b9250506020612ef885828601612ca5565b9150509250929050565b5f8115159050919050565b612f1681612f02565b82525050565b5f602082019050612f2f5f830184612f0d565b92915050565b612f3e81612b01565b82525050565b612f4d81612f02565b82525050565b5f612f5d82612ac2565b9050919050565b612f6d81612f53565b82525050565b61014082015f820151612f885f850182612f35565b506020820151612f9b6020850182612f35565b506040820151612fae6040850182612f44565b506060820151612fc16060850182612f44565b506080820151612fd46080850182612f35565b5060a0820151612fe760a0850182612f35565b5060c0820151612ffa60c0850182612f44565b5060e082015161300d60e0850182612f44565b50610100820151613022610100850182612f64565b50610120820151613037610120850182612f64565b50505050565b5f610140820190506130515f830184612f73565b92915050565b5f6020828403121561306c5761306b612c87565b5b5f61307984828501612eb0565b91505092915050565b7f4e487b71000000000000000000000000000000000000000000000000000000005f52602160045260245ffd5b600281106130c0576130bf613082565b5b50565b5f8190506130d0826130af565b919050565b5f6130df826130c3565b9050919050565b6130ef816130d5565b82525050565b5f81519050919050565b5f82825260208201905092915050565b5f819050602082019050919050565b5f6131298383612f35565b60208301905092915050565b5f602082019050919050565b5f61314b826130f5565b61315581856130ff565b93506131608361310f565b805f5b83811015613190578151613177888261311e565b975061318283613135565b925050600181019050613163565b5085935050505092915050565b5f608083015f8301516131b25f8601826130e6565b50602083015184820360208601526131ca8282613141565b91505060408301516131df6040860182612f35565b5060608301516131f26060860182612f44565b508091505092915050565b5f6020820190508181035f830152613215818461319d565b905092915050565b61322681612ae1565b82525050565b608082015f8201516132405f850182612f35565b506020820151613253602085018261321d565b5060408201516132666040850182612f44565b5060608201516132796060850182612f35565b50505050565b5f6080820190506132925f83018461322c565b92915050565b6132a181612f53565b81146132ab575f80fd5b50565b5f813590506132bc81613298565b92915050565b5f80604083850312156132d8576132d7612c87565b5b5f6132e5858286016132ae565b92505060206132f685828601612ca5565b9150509250929050565b5f6020828403121561331557613314612c87565b5b5f613322848285016132ae565b91505092915050565b61333481612f02565b811461333e575f80fd5b50565b5f8135905061334f8161332b565b92915050565b5f805f6060848603121561336c5761336b612c87565b5b5f61337986828701613341565b935050602084013567ffffffffffffffff81111561339a57613399612c8b565b5b6133a686828701612df7565b925050604084013567ffffffffffffffff8111156133c7576133c6612c8b565b5b6133d386828701612df7565b9150509250925092565b7f4461746120696e636f6e73697374656e637900000000000000000000000000005f82015250565b5f613411601283612a68565b915061341c826133dd565b602082019050919050565b5f6020820190508181035f83015261343e81613405565b9050919050565b7f4e487b71000000000000000000000000000000000000000000000000000000005f52601160045260245ffd5b5f61347c82612b01565b915061348783612b01565b925082820261349581612b01565b915082820484148315176134ac576134ab613445565b5b5092915050565b7f57726f6e6720616d6f756e7420706169640000000000000000000000000000005f82015250565b5f6134e7601183612a68565b91506134f2826134b3565b602082019050919050565b5f6020820190508181035f830152613514816134db565b9050919050565b7f596f7520617265206e6f7420612072656e746572207468657265666f726520795f8201527f6f75277265206e6f7420616c6c6f77656420746f20726567697374657220726f60208201527f6f6d730000000000000000000000000000000000000000000000000000000000604082015250565b5f61359b604383612a68565b91506135a68261351b565b606082019050919050565b5f6020820190508181035f8301526135c88161358f565b9050919050565b7f496e636f6e73697374656e7420696e666f726d6174696f6e2070726f766964655f8201527f642e000000000000000000000000000000000000000000000000000000000000602082015250565b5f613629602283612a68565b9150613634826135cf565b604082019050919050565b5f6020820190508181035f8301526136568161361d565b9050919050565b7f4e487b71000000000000000000000000000000000000000000000000000000005f52603260045260245ffd5b5f61369482612b01565b91507fffffffffffffffffffffffffffffffffffffffffffffffffffffffffffffffff82036136c6576136c5613445565b5b600182019050919050565b7f596f7520617265206e6f7420616e20617574686f72697a6564207573657200005f82015250565b5f613705601e83612a68565b9150613710826136d1565b602082019050919050565b5f6020820190508181035f830152613732816136f9565b9050919050565b7f52656e746572206973206e6f7420616e20617574686f72697a656420757365725f82015250565b5f61376d602083612a68565b915061377882613739565b602082019050919050565b5f6020820190508181035f83015261379a81613761565b9050919050565b7f53747564656e74206f7220726f6f6d20616c726561647920696e20636f6e74725f8201527f6163740000000000000000000000000000000000000000000000000000000000602082015250565b5f6137fb602383612a68565b9150613806826137a1565b604082019050919050565b5f6020820190508181035f830152613828816137ef565b9050919050565b7f496e636f6e73697374656e6379206265747765656e20726f6f6d206f776e65725f8201527f20616e642072656e746572000000000000000000000000000000000000000000602082015250565b5f613889602b83612a68565b91506138948261382f565b604082019050919050565b5f6020820190508181035f8301526138b68161387d565b9050919050565b7f546869732072656e746572277320726f6f6d732061726520616c6c20616c72655f8201527f616479206f636375706965640000000000000000000000000000000000000000602082015250565b5f613917602c83612a68565b9150613922826138bd565b604082019050919050565b5f6020820190508181035f8301526139448161390b565b9050919050565b5f61395582612b01565b915061396083612b01565b925082820190508082111561397857613977613445565b5b92915050565b7f5573657220616c726561647920726567697374657265640000000000000000005f82015250565b5f6139b2601783612a68565b91506139bd8261397e565b602082019050919050565b5f6020820190508181035f8301526139df816139a6565b9050919050565b5f6139f082612b01565b91506139fb83612b01565b9250828203905081811115613a1357613a12613445565b5b9291505056fea2646970667358221220435dd67aa76dfd291e97ee455da82edbd95f254ed2de86a8f86b8db9a95d6d6764736f6c63430008140033",
  "immutableReferences": {},
  "source": "// SPDX-License-Identifier: GPL - 3.0\r\n\r\npragma solidity >= 0.7.0;\r\n\r\ncontract Prova {\r\n\r\n    event Log(string func, address sender, uint value, bytes data);\r\n\r\n    struct contract_instance {\r\n        uint contract_id;\r\n        uint room_id;\r\n        bool student_paid;\r\n        bool renter_paid;\r\n        uint amt_paid_student;\r\n        uint amt_paid_renter;\r\n        bool concluded_student;\r\n        bool concluded_renter;\r\n        address payable student;\r\n        address payable renter;\r\n    }\r\n\r\n    struct room {\r\n        uint id;\r\n        address owner;\r\n        bool occupied;\r\n        uint deposit;\r\n    }\r\n\r\n    // the bool variable already_init is used to check if the couple (key, struct) has already been explicitely set (solidity automatically )\r\n    struct user {\r\n        Role role;\r\n        uint[] contract_instance_record;\r\n        uint num_rooms;\r\n        bool already_init;\r\n    }\r\n\r\n    enum Role {\r\n        Renter,\r\n        Student\r\n    }\r\n\r\n    address payable contract_address = payable(address(this));\r\n    mapping(uint => contract_instance) contract_record;         // associa a ogni id la rispettiva struct di contratto\r\n    mapping(address => user) user_info;                        // associa a ogni indirizzo il suo ruolo (student: 0, renter: 1)\r\n    mapping(address => uint[]) renters_rooms;                  // associa a ogni renter un array che contiene l'id delle sue stanze\r\n    mapping(uint => room) rooms_record;    \r\n    uint conversion_rate = 586099570929370;                     // DA CHIEDERE ALL'ESTERNO?\r\n    uint num_contracts;                                         // var globale che incremento a ogni nuovo contratto e la uso come id\r\n\r\n    constructor() {\r\n        //contract_record = new mapping(uint => contract_instance); // non chiaro come si inizializza\r\n        num_contracts = 1;\r\n    }\r\n\r\n    function register_user(bool role_id, uint[] memory rooms, uint[] memory deposits) public {\r\n        // Doesn't allow double registrations\r\n        require(!user_info[msg.sender].already_init, \"User already registered\");\r\n        uint[] memory a;\r\n        \r\n\r\n        //uint256[] memory a = new uint256[](0);\r\n        // false --> student, true --> renter\r\n        \r\n        if (role_id) {\r\n            user_info[msg.sender] = user({role: Role.Renter, contract_instance_record: a, num_rooms: 0, already_init: true});\r\n        }\r\n        else {\r\n            user_info[msg.sender] = user({role: Role.Student, contract_instance_record: a, num_rooms: 0, already_init: true});\r\n        }\r\n        \r\n    }\r\n\r\n    function register_rooms(uint[] memory rooms, uint[] memory deposits) public payable {\r\n        // controlliamo che il chiamante sia un renter\r\n        require(user_info[msg.sender].role == Role.Renter, \"You are not a renter therefore you're not allowed to register rooms\");\r\n        require(rooms.length == deposits.length, \"Inconsistent information provided.\");\r\n        uint l = rooms.length;\r\n        user_info[msg.sender].num_rooms = l; \r\n        // TODO: VERIFICARE CHE IL RENTER SIA EFFETTIVAMENTE IL PROPRIETARIO DELLE STANZE (sia fa una zkp nelle nft? chi lo sa)\r\n\r\n        for (uint i = 0; i < l; i++) {\r\n            room memory new_room = room({id: rooms[i], owner: msg.sender, occupied: false, deposit: deposits[i]});\r\n            renters_rooms[msg.sender].push(rooms[i]);\r\n            rooms_record[new_room.id] = new_room;\r\n        }\r\n        \r\n    }   \r\n\r\n    // If the student has his heart already set on a specific room \r\n    function inizialize(address payable renter, uint room_id) public {\r\n        require(check_user_already_registered(msg.sender), \"You are not an authorized user\");\r\n        require(check_user_already_registered(renter), \"Renter is not an authorized user\");\r\n\r\n        address payable student = payable(msg.sender);\r\n        \r\n        // check che lo studente non sia gi in una \"istanza\" di contratto o che la stanza non sia gi occupata\r\n        require(check_if_already_in_contract(student, room_id) == false, \"Student or room already in contract\"); // controllare che l'inizializzazione venga interrotta e venga emesso il messaggio di errore\r\n        \r\n        // check that the renter is the room's owner\r\n        require(rooms_record[room_id].owner == renter, \"Inconsistency between room owner and renter\");\r\n\r\n        // se n lo student n la stanza sono gi in un contratto, possiamo procedere alla creazione della struct che rappresenta l'istanza del contratto\r\n        uint new_id = num_contracts;\r\n        num_contracts++;\r\n        rooms_record[room_id].occupied = true;\r\n        contract_instance memory instance = contract_instance({\r\n            contract_id: new_id, \r\n            room_id: room_id, \r\n            student_paid: false, \r\n            renter_paid: false, \r\n            amt_paid_student: 0, \r\n            amt_paid_renter: 0, \r\n            concluded_student: false, \r\n            concluded_renter: false, \r\n            student: student, \r\n            renter: renter\r\n        });\r\n\r\n        contract_record[new_id] = instance;\r\n        user_info[student].contract_instance_record.push(new_id);\r\n        user_info[renter].contract_instance_record.push(new_id);\r\n    }\r\n\r\n    // if the student doesn't care about which room he gets assigned\r\n    function inizialize(address payable renter) public {\r\n        require(check_user_already_registered(msg.sender), \"You are not an authorized user\");\r\n        require(check_user_already_registered(renter), \"Renter is not an authorized user\");\r\n        address payable student = payable(msg.sender);\r\n        \r\n        uint room_id;\r\n        bool room_found = false;\r\n\r\n        // Checks if the owner has any rooms available\r\n        for (uint i = 0; i < user_info[renter].num_rooms; i++) {\r\n            if (!rooms_record[renters_rooms[renter][i]].occupied) {\r\n                room_found = true;\r\n                room_id = rooms_record[renters_rooms[renter][i]].id;\r\n                break;\r\n            }\r\n        }\r\n        \r\n        require(room_found, \"This renter's rooms are all already occupied\"); \r\n\r\n        uint new_id = num_contracts;\r\n        num_contracts++;\r\n        rooms_record[room_id].occupied = true;\r\n        contract_instance memory instance = contract_instance({\r\n            contract_id: new_id, \r\n            room_id: room_id, \r\n            student_paid: false, \r\n            renter_paid: false, \r\n            amt_paid_student: 0, \r\n            amt_paid_renter: 0, \r\n            concluded_student: false, \r\n            concluded_renter: false, \r\n            student: student, \r\n            renter: renter\r\n        });\r\n        contract_record[new_id] = instance;\r\n        user_info[student].contract_instance_record.push(new_id);\r\n        user_info[renter].contract_instance_record.push(new_id);\r\n    \r\n    }\r\n\r\n    \r\n    function student_pay_deposit() public payable {\r\n        Role role = user_info[msg.sender].role;\r\n        require(role == Role.Student);\r\n        \r\n        uint contract_id = user_info[msg.sender].contract_instance_record[0];\r\n        contract_instance memory instance = contract_record[contract_id];\r\n        uint deposit = rooms_record[instance.room_id].deposit;\r\n        uint paid_amount = msg.value;\r\n        require(paid_amount == conversion_rate * deposit, \"Wrong amount paid\");\r\n        \r\n        instance.amt_paid_student = paid_amount;\r\n        instance.student_paid = true;\r\n        \r\n    }\r\n\r\n    function renter_pay_deposit(uint contract_id) public payable {\r\n        contract_instance memory instance = contract_record[contract_id];\r\n        Role role = user_info[msg.sender].role;\r\n        require(role == Role.Renter, \"Data inconsistency\"); // probabilmente inutile (gi implicitamente incluso nel secondo require)\r\n        require(msg.sender == instance.renter, \"Data inconsistency\");\r\n        uint deposit = rooms_record[instance.room_id].deposit;\r\n        uint paid_amount = msg.value;\r\n        require(paid_amount == conversion_rate * deposit, \"Wrong amount paid\"); \r\n        instance.amt_paid_renter = paid_amount;\r\n        instance.renter_paid = true;\r\n    }\r\n\r\n    function withdraw_from_contract(uint contract_id) public {\r\n        // IDEA: lo studente non pu ritirarsi prima di aver pagato la caparra, oppure pu ritirarsi gratuitamente nel lasso di tempo \r\n        // che ha per pagare la caparra\r\n        address receder = msg.sender;\r\n        address other;\r\n        contract_instance memory instance = contract_record[contract_id];\r\n        if (user_info[msg.sender].role == Role.Student) {\r\n            other = contract_record[contract_id].renter;\r\n        }\r\n        else {\r\n            other = contract_record[contract_id].student;\r\n        }\r\n        uint room_id = instance.room_id;\r\n\r\n        delete_contract_instance(receder, other, contract_id, room_id);\r\n        \r\n        \r\n        payable(other).transfer(instance.amt_paid_student + instance.amt_paid_renter);\r\n    }\r\n\r\n    \r\n\r\n    function end_contract_successfully(uint contract_id) public returns (bool) {\r\n        contract_instance memory instance = contract_record[contract_id];\r\n        address student;\r\n        address renter;\r\n        if (user_info[msg.sender].role == Role.Student) {\r\n            student = msg.sender;\r\n            instance.concluded_student = true;\r\n            renter = instance.renter;\r\n        }\r\n        else {\r\n            renter = msg.sender;\r\n            instance.concluded_renter = true;\r\n            student = instance.student;\r\n        }\r\n\r\n        if (instance.concluded_renter && instance.concluded_student) {\r\n            delete_contract_instance(student, renter, contract_id, instance.room_id);\r\n            payable(student).transfer(instance.amt_paid_student);\r\n            payable(renter).transfer(instance.amt_paid_renter);\r\n            return true;\r\n        }\r\n        return false;\r\n    }\r\n\r\n\r\n    function get_user_info(address add) public view returns (user memory) {\r\n        return user_info[add];\r\n    }\r\n\r\n    function get_contract_info(uint256 contract_id) public view returns (contract_instance memory) {\r\n        return contract_record[contract_id];\r\n    }\r\n\r\n\r\n    function get_room_info(uint room_id) public view returns (room memory) {\r\n        return rooms_record[room_id];\r\n    }\r\n\r\n    function check_if_already_paid(address addr, uint contract_id) public view returns (bool) {\r\n        Role role = user_info[addr].role;\r\n        contract_instance memory instance = contract_record[contract_id];\r\n        if (role == Role.Renter) {\r\n            require(addr == instance.renter, \"Data inconsistency\");\r\n            return instance.renter_paid;\r\n        }\r\n        else {\r\n            require(addr == instance.student, \"Data inconsistency\");\r\n            return instance.student_paid;\r\n        }\r\n    }\r\n\r\n\r\n    function check_if_already_in_contract(address student, uint room_id) private view returns (bool) {\r\n        // controlla se lo studente o la stanza (disgiunzione inclusiva) sono gi in un contratto\r\n        \r\n        uint[] memory student_array = user_info[student].contract_instance_record;\r\n\r\n        if (student_array.length > 0 || rooms_record[room_id].occupied == true) {\r\n            return true;\r\n        }\r\n        return false;\r\n\r\n    }\r\n\r\n    function check_user_already_registered(address add) private view returns (bool) {\r\n        return user_info[add].already_init;\r\n    } \r\n\r\n    function delete_contract_instance(address a1, address a2, uint contract_id, uint room_id) private {\r\n        \r\n        // delete the contract instance\r\n        delete(contract_record[contract_id]);\r\n\r\n        // mark the room as not occupied\r\n        rooms_record[room_id].occupied = false;\r\n        \r\n        // modify the list of contract instances the addresses are a part of\r\n        uint[] memory a1_record = user_info[a1].contract_instance_record;\r\n        uint[] memory a1_new_record = new uint[](a1_record.length - 1); // la lunghezza  uno in meno perch tolgo l'id di contratto dall'array\r\n        uint[] memory a2_record = user_info[a2].contract_instance_record;\r\n        uint[] memory a2_new_record = new uint[](a2_record.length - 1);\r\n\r\n        \r\n        for (uint i = 0; i < a1_record.length; i++) {\r\n            if (a1_record[i] != contract_id) {\r\n                a1_new_record[i] = a1_record[i];\r\n            }  \r\n        }\r\n        user_info[a1].contract_instance_record = a1_new_record; \r\n\r\n        for (uint i = 0; i < a2_record.length; i++) {\r\n            if (a2_record[i] != contract_id) {\r\n                a2_new_record[i] = a2_record[i];\r\n            }  \r\n        }\r\n        user_info[a2].contract_instance_record = a2_new_record;\r\n    } \r\n\r\n    function string_to_uint(string memory s) private pure returns (uint) {\r\n        bytes memory b = bytes(s);\r\n        uint i;\r\n        uint result = 0;\r\n        for (i = 0; i < b.length; i++) {\r\n            uint c = uint(uint8(b[i]));\r\n            if (c >= 48 && c <= 57) {\r\n                result = result * 10 + (c - 48);\r\n            }\r\n        }\r\n        return result;\r\n    }\r\n\r\n    function check_if_user_already_registered(address addr) private view returns (bool) {\r\n        return user_info[addr].already_init;\r\n    }\r\n\r\n    fallback() external payable {\r\n        emit Log(\"fallback\", msg.sender, msg.value, msg.data);\r\n    }\r\n\r\n    receive() external payable {\r\n        emit Log(\"fall\", msg.sender, msg.value, \"\");\r\n    }\r\n\r\n    \r\n}\r\n\r\n",
  "sourcePath": "C:\\Users\\annag\\OneDrive\\Desktop\\Varie\\Unitn\\Blockchain\\HouseLocker\\smart_contracts\\Affitto\\contracts\\Affitto.sol",
  "compiler": {
    "name": "solc",
    "version": "0.8.20+commit.a1b79de6.Emscripten.clang"
  },
  "schemaVersion": "3.4.14",
  "updatedAt": "2023-06-22T15:16:53.904Z",
  "devdoc": {
    "kind": "dev",
    "methods": {},
    "version": 1
  },
  "userdoc": {
    "kind": "user",
    "methods": {},
    "version": 1
  }
}